:100000000C947C000C949D000C949D000C949D001D
:100010000C949D000C949D000C949D000C949D00EC
:100020000C949D000C949D000C949D000C94B109BF
:100030000C949D000C94EA0C0C949D000C949D0073
:100040000C949D000C949D000C949D000C949D00BC
:100050000C949D000C949D000C949D000C94AB0D91
:100060000C949D000C94700D0C949D000C94800DCC
:100070000C949D000C949D000C949D000C949D008C
:100080000C949D000C949D000C949D000C949D007C
:100090000C949D000C949D000C949D000C949D006C
:1000A0000C949D000C949D000C949D000C949D005C
:1000B0000C949D000C949D000C949D000C949D004C
:1000C0000C949D000C949D000C949D000C949D003C
:1000D0000C949D000C949D000C949D000C949D002C
:1000E0000C949D00960C990C9E0CA30CB20CA80CC1
:1000F000AD0CB70CBC0CC10C11241FBECFEFD1E26C
:10010000DEBFCDBF00E00CBF12E0A0E0B2E0E6EF42
:10011000F3E200E00BBF02C007900D92A236B107D8
:10012000D9F713E0A2E6B2E001C01D92A13AB107EF
:10013000E1F70E9408050C94F9110C940000A0E06E
:10014000B0E0E5EAF0E00C94B70E3C01CB01EA0127
:10015000D3012C91223008F43EC1FB0130813230B2
:1001600008F436C1243071F4343009F034C11196EA
:100170002C918181281709F42EC1B8E36B2EB2E0CF
:100180007B2E29C1343009F423C1323091F422305E
:1001900009F021C128E0F301DA0101900D922A95BE
:1001A000E1F7DB0111968C91F30191818923898319
:1001B00011C1223009F40CC1D3011296ED91FC91CA
:1001C0001397DB0112966D917C911397D3011496CE
:1001D0000D911D912D913C911797DC011496CD90B6
:1001E000DD90ED90FC901797AF01461B570BDA019D
:1001F00057FF04C0AA27BB27A41BB50BA032B1052B
:100200000CF065C0141615067CF5B701A6010A2E80
:1002100004C076956795579547950A94D2F7812C37
:10022000912C5401839404C0880C991CAA1CBB1CFB
:10023000AA95D2F7B1E08B1A9108A108B1088C20D9
:100240009D20AE20BF20C12CD12C7601C3948114F7
:100250009104A104B10419F4C12CD12C7601C42A53
:10026000D52AE62AF72A3EC0452BE1F1EA0FFB1F0B
:10027000B901A8010A2E04C0769567955795479550
:100280000A94D2F7812C912C5401839404C0880CD9
:10029000991CAA1CBB1CAA95D2F7A1E08A1A910846
:1002A000A108B10880229122A222B32201E010E02D
:1002B00020E030E081149104A104B10419F400E0BD
:1002C00010E09801042B152B262B372B0BC06E1733
:1002D0007F0724F4C12CD12C760104C0FB0100E07F
:1002E00010E09801D30111964C91DC0111968C918C
:1002F000481709F442C0442349F0D701C601801BC6
:10030000910BA20BB30B8C019D0104C00C191D09AC
:100310002E093F0937FD04C01982FB83EA830BC015
:1003200081E08983FB83EA833095209510950195C0
:100330001F4F2F4F3F4F0C831D832E833F830DC0D4
:10034000880F991FAA1FBB1F8C839D83AE83BF8319
:100350008A819B8101979B838A838C819D81AE8159
:10036000BF818C019D0101501109210931090F3F05
:100370001F4F2F4F3F4320F30BC04983FB83EA837A
:100380000C0D1D1D2E1D3F1D0C831D832E833F83D1
:1003900083E088830C811D812E813F8137FF1AC045
:1003A000D901C80181709927AA27BB2736952795BF
:1003B00017950795802B912BA22BB32B8C839D83B4
:1003C000AE83BF838A819B8101969B838A8302C00F
:1003D0003C0101C03E01C301CDB7DEB7EEE00C9495
:1003E000D30EA0E2B0E0E7EFF1E00C94C30E6D8F06
:1003F0007E8F8F8F98A3298F3A8F4B8F5C8FBE0192
:100400006F5E7F4FCE014D960E949604BE01675FDE
:100410007F4FCE0149960E949604AE014F5F5F4F19
:10042000BE01675F7F4FCE0141960E949F000E94F0
:10043000D503A096E2E00C94DF0EA0E2B0E0E3E288
:10044000F2E00C94C30E6D8F7E8F8F8F98A3298F4F
:100450003A8F4B8F5C8FBE016F5E7F4FCE014D9602
:100460000E949604BE01675F7F4FCE0149960E94AD
:1004700096048A8591E089278A87AE014F5F5F4F96
:10048000BE01675F7F4FCE0141960E949F000E9490
:10049000D503A096E2E00C94DF0EA0E2B0E0E3E525
:1004A000F2E00C94B50E6D8F7E8F8F8F98A3298FFD
:1004B0003A8F4B8F5C8FBE016F5E7F4FCE014D96A2
:1004C0000E949604BE01675F7F4FCE0149960E944D
:1004D00096049989923008F412C08985823008F414
:1004E0001AC0943021F4823009F4B4C008C08430BA
:1004F00021F4923009F4AEC00EC0923051F481E084
:100500002A899A85291301C080E08A8BCE01419601
:10051000A3C0823051F481E02A899A85291301C051
:1005200080E08A87CE01099697C08D889E88AF8823
:10053000B88C0D851E852F853889E0E2F0E080E0DB
:1005400090E0DC01C12CD12C760140E050E0BA01F2
:1005500080FE18C0400F511F621F731F8C0D9D1D20
:10056000AE1DBF1D412C512C320143944017510741
:100570006207730718F0412C512C3201840D951D30
:10058000A61DB71DCC0CDD1CEE1CFF1C37FF02C0E6
:100590006894C0F8000F111F221F331FB694A79450
:1005A000979487943197A1F62B893C89EB85FC853C
:1005B0002E0F3F1F2E5F3F4F3C832B8321E0EA89A4
:1005C0003A85E31301C020E02A83EB81FC810CC053
:1005D00080FF05C076956795579547957068B695E5
:1005E000A795979587953196B7FDF2CF9F010CC0DF
:1005F000880F991FAA1FBB1F77FD8160440F551FED
:10060000661F771F215031090097A105E0E4BE075E
:1006100078F32B833C838C019D010F7711272227D0
:100620003327003411052105310559F487FD09C030
:10063000452B462B472B29F0805C9F4FAF4FBF4F78
:1006400080788D839E83AF83B88783E08983CE01D2
:10065000019602C088E392E00E94D503A096E0E1F3
:100660000C94D10EA8E1B0E0E8E3F3E00C94BD0EE9
:100670006D8B7E8B8F8B988F298B3A8B4B8B5C8B02
:10068000BE01675F7F4FCE0145960E949604BE0172
:100690006F5F7F4FCE0141960E94960499859230FC
:1006A00008F475C08981823008F474C02A853A81C3
:1006B00023272A87943011F0923019F4981367C0D9
:1006C0006CC0843039F41D861E861F86188A1C86ED
:1006D0001B8604C0823029F484E08987CE01099604
:1006E0005EC08B859C852B813C81821B930B9C87F4
:1006F0008B874D855E856F857889CD80DE80EF8024
:10070000F8844C155D056E057F0538F4440F551FC0
:10071000661F771F01979C878B87EFE1F0E000E071
:1007200010E020E030E480E090E0DC014C155D0555
:100730006E057F0540F0802B912BA22BB32B4C191B
:100740005D096E097F093695279517950795440F22
:10075000551F661F771F319749F78C019D010F7751
:10076000112722273327003411052105310559F4BB
:1007700087FD09C0452B462B472B29F0805C9F4FF6
:10078000AF4FBF4F80788D879E87AF87B88BCE01E4
:10079000099605C0CE01019602C088E392E00E944E
:1007A000D5036896E8E00C94D90E0F931F93CF936E
:1007B000FC014481558166817781C18180818230CD
:1007C00020F460618FEF90E0A3C0843009F49BC0F7
:1007D000823009F492C0411551056105710509F493
:1007E0008FC02281338122388FEF38070CF057C039
:1007F000E2E8FFEFE21BF30BEA31F10564F58A0151
:100800009B010E2E04C036952795179507950A94DF
:10081000D2F781E090E0A0E0B0E004C0880F991F1B
:10082000AA1FBB1FEA95D2F70197A109B10984233A
:100830009523A623B72341E050E060E070E0892BC8
:100840008A2B8B2B19F440E050E0BA01402B512B3E
:10085000622B732B03C040E050E0BA01DB01CA01F8
:100860008F779927AA27BB2780349105A105B10569
:1008700039F447FF09C0405C5F4F6F4F7F4F04C0A2
:10088000415C5F4F6F4F7F4F81E090E04115510514
:10089000610520E4720748F580E090E026C020382A
:1008A00031058CF5DB01CA018F779927AA27BB2771
:1008B00080349105A105B10539F447FF09C0405CBA
:1008C0005F4F6F4F7F4F04C0415C5F4F6F4F7F4F53
:1008D00077FD04C0C90181589F4F07C07695679581
:1008E00057954795C90180589F4F97E07695679532
:1008F000579547959A95D1F70BC080E090E005C0D9
:1009000080E090E005C08FEF90E040E050E0BA0159
:10091000982F9695C0FB97F9362F80FB37F9642FF7
:10092000752F832FCF911F910F910895CF92DF9252
:10093000EF92DC01FB01CC901196DC90119712969E
:100940008C9112973FE7E32EE8226E2DA60170E00E
:10095000982F991F9927991F13962C91822F880FF2
:10096000892B90E027FB222720F92183009729F586
:10097000411551056105710511F482E027C082E837
:100980009FEF9383828327E0440F551F661F771FD5
:100990002A95D1F783E0808309C0440F551F661F55
:1009A000771F82819381019793838283411551053B
:1009B000610580E4780788F320C08F3F910579F4C2
:1009C000411551056105710519F484E0808319C052
:1009D000E4FE03C081E0808310C010820EC08F57F8
:1009E00091099383828383E0808387E0440F551FBE
:1009F000661F771F8A95D1F7706444835583668399
:100A00007783EF90DF90CF90089581E090E0089594
:100A10000F931F93CF93DF9383E390E00E941A0D0F
:100A20000E942607789460E472E080E092E00E94E1
:100A3000EA0E80E092E00E942E0D8FE592E00E9487
:100A40002E0D1092630210926202CAE4D2E000E01E
:100A500012E03EC04EEC52E06CEC72E08AEC92E0A8
:100A60000E941B08809163028F93809162028F9392
:100A70008091CB028F938091CA028F93DF93CF93A3
:100A80001F930F930E94120F80E092E00E942E0DA0
:100A90009FE72FEA82E0915020408040E1F700C0BC
:100AA000000087E894E00197F1F700C00000809112
:100AB00062029091630201969093630280936202B6
:100AC0008DB79EB708960FB6F8949EBF0FBE8DBF28
:100AD0008091620290916302883E934008F4BACFFD
:100AE00080E090E0DF91CF911F910F910895CF9317
:100AF000C82F82508430F8F460ED77E08C2F0E948C
:100B00006F0C2FEF87EA91E6215080409040E1F78B
:100B100000C0000068EE73E08C2F0E946F0C2FEF76
:100B200087EA91E6215080409040E1F700C0000044
:100B300020E030E002C021E030E0C901CF9108950B
:100B4000982F9250993080F49B01285E3340293EC3
:100B5000334050F493E0660F771F9A95E1F70E94B7
:100B60006F0C20E030E002C021E030E0C9010895C0
:100B7000982F9250993038F460E070E00E946F0C2A
:100B800020E030E002C021E030E0C90108958FE3A9
:100B90009CE90197F1F700C0000040E16DE080E4BE
:100BA0000E946B098FE19EE40197F1F700C00000FD
:100BB00060E280E40E948609482F4F7060E280E482
:100BC0000E946B098FE19EE40197F1F700C00000DD
:100BD00060E380E40E948609482F4C7F60E380E454
:100BE0000E946B098FE19EE40197F1F700C00000BD
:100BF00065E380E40E948609482F417F4A6065E3EF
:100C000080E40E946B098FE19EE40197F1F700C038
:100C100000000895FF920F931F93CF93DF932091CD
:100C2000D0023091D1022115310509F481C0EAE6E4
:100C3000F2E0C3E5D3E00CE613E0F12C211582E0ED
:100C4000380721F41082118212821382488159815F
:100C5000662757FD6095762F80819181A281B381AF
:100C6000840F951FA61FB71F81939193A193B193F2
:100C700019921992D8011D921D928D01F394B3E03F
:100C8000FB12DCCF2130310509F04CC080916A02A3
:100C900090916B02A0916C02B0916D029F5FAF4F7B
:100CA000BF4F49E0B595A795979587954A95D1F798
:100CB00090936D0380936C0380916E0290916F020C
:100CC000A0917002B09171029F5FAF4FBF4F59E08A
:100CD000B595A795979587955A95D1F790936F03FA
:100CE00080936E038091720290917302A0917402BE
:100CF000B09175029F5FAF4FBF4F69E0B595A79563
:100D0000979587956A95D1F78F5F910990937103B5
:100D1000809370031092F8021092F7021092FA0278
:100D20001092F902215031093093D1022093D00260
:100D3000809153039091540320916C0330916D0383
:100D4000821B930B9093540380935303809155031C
:100D50009091560320916E0330916F03821B930B89
:100D600090935603809355038091570390915803B5
:100D70002091700330917103821B930B9093580361
:100D800080935703DF91CF911F910F91FF900895AA
:100D90008F929F92AF92BF92CF92DF92EF92FF928B
:100DA0000F931F93CF93DF936C015B014A018CE09B
:100DB0008093B80062E080E40E94650973E5E72E45
:100DC00073E0F72E30915E0320E080915D03282BC5
:100DD000319521953109F7013183208305E513E031
:100DE0003091600320E080915F03282B319521959D
:100DF0003109F80131832083C7E5D3E030916203E4
:100E000020E080916103282B398328830E940A0601
:100E1000F70180819181F60191838083F8018081BF
:100E20009181F5019183808388819981F401918377
:100E30008083DF91CF911F910F91FF90EF90DF9012
:100E4000CF90BF90AF909F908F9008952FEF81EE3D
:100E500094E0215080409040E1F700C0000040E85D
:100E60006EE388E60E946B098FE19EE40197F1F73B
:100E700000C000004BE166E188E60E946B098FE14B
:100E80009EE40197F1F700C0000043E06EE388E6BE
:100E90000E946B099FEF21EE84E09150204080403A
:100EA000E1F700C0000008950F931F93CF93DF93E5
:100EB0001F921F92CDB7DEB78C018CE08093B800F3
:100EC00022E030E0AE014F5F5F4F6BE188E60E94A9
:100ED0003209898190E0982F88272A81822B68E146
:100EE00071E00E94990EF801718360830F900F905A
:100EF000DF91CF911F910F910895DF92EF92FF92B2
:100F00000F931F93CF93DF93809187039091880372
:100F1000892B09F464C0CCE7D2E04DE4E42E43E031
:100F2000F42E0FE713E053E0D52E20918703309184
:100F30008803211582E0380721F4188219821A8269
:100F40001B82F70140815181662757FD6095762FFE
:100F500088819981AA81BB81840F951FA61FB71F25
:100F600088839983AA83BB8311821082F80111823E
:100F700010822130310509F585E893E00E9454077D
:100F800010928A031092890310928C0310928B03A3
:100F900010928E0310928D0388819981AA81BB8162
:100FA0009F5FAF4FBF4F39E0B595A7959795879550
:100FB0003A95D1F7F80191838083DA942496F2E090
:100FC000EF0EF11C0E5F1F4FD110AFCF8091870342
:100FD0009091880301979093880380938703EFE7AC
:100FE000F3E0CDE4D3E0A6E7B2E0819191912881CE
:100FF0003981281B390B4D915C911197CA018052A0
:101000009340281739073CF0CA01805E9C4F28178F
:1010100039070CF4C901899399938D939D9383E0CB
:10102000E538F80711F7DF91CF911F910F91FF90ED
:10103000EF90DF9008958F929F92AF92BF92CF92E0
:10104000DF92EF92FF920F931F93CF93DF93EC0108
:101050008B017A018CE08093B8006DE188E60E94F4
:1010600065096DE4C62E63E0D62E20915D0330E065
:10107000322F222780915E03282B359527953595B1
:101080002795F60131832083FFE4AF2EF3E0BF2ED6
:1010900020915F0330E0322F222780916003282BBC
:1010A0003595279535952795F5013183208381E581
:1010B000882E83E0982E2091610330E0322F222782
:1010C00080916203282B3595279535952795F40156
:1010D000318320830E947D07F6018081918199836D
:1010E0008883F50180819181F80191838083F401E7
:1010F00080819181F70191838083DF91CF911F914E
:101100000F91FF90EF90DF90CF90BF90AF909F90A6
:101110008F900895861797072CF0481759071CF4ED
:10112000CA010895CB010895589859981092B900B2
:101130008CE08093B80084E08093BC00089584E93B
:101140008093BC0008958FEF90E02091BC0027FDB4
:101150000FC001970097C9F71092BC0080918802D8
:101160009091890201969093890280938802089554
:1011700008950F931F93CF93DF931F92CDB7DEB7E0
:101180000CEB10E094EAF801908389830E94A30895
:1011900089818093BB0084E8F80180830F90DF9100
:1011A000CF911F910F910C94A3088093BB0084E80A
:1011B0008093BC000C94A308CF93C82F882311F010
:1011C00084EC01C084E88093BC000E94A308809155
:1011D000BB00C11103C094E99093BC00CF91089566
:1011E00080E00C94DC0884EC8093BC000E94A3088F
:1011F0008091BB000895CF92DF92EF92FF920F9300
:101200001F93CF93DF931F921F92CDB7DEB77A0162
:10121000880F816069837A830E94B9088701015031
:1012200011096981C62E7A81D72E0F3FFFEF1F0764
:1012300069F081E00115110509F480E00E94DC08E5
:10124000F60181936F0101501109EFCFC7010F9093
:101250000F90DF91CF911F910F91FF90EF90DF9052
:10126000CF900895CF92DF92FF920F931F93CF9369
:10127000DF931F92CDB7DEB7F82E6A018901880F80
:1012800069830E94B9086981862F0E94D508A80148
:10129000B6018F2D0F90DF91CF911F910F91FF908D
:1012A000DF90CF900C94FB0861507109680F791F93
:1012B000FC01E617F70740F48081DB019C919193D4
:1012C0008C9361507109F5CF089526E030E04DE52B
:1012D00053E00C943209CF93DF931F921F92CDB746
:1012E000DEB7880F4A8369830E94B9086981862F17
:1012F0000E94D5084A81842F0E94D50884E98093F2
:10130000BC000F900F90DF91CF910895CF93DF93A2
:101310001F92CDB7DEB721E030E0AE014F5F5F4FE7
:101320000E94320989810F90DF91CF910895109228
:1013300007018FEF8093080184E08093680081E0CB
:1013400080938C0280936D000895809106019091A6
:101350008C02892390918A02982780938A0289239C
:1013600008951F920F920FB60F9211240BB60F9291
:101370002F933F934F935F936F937F938F939F939D
:10138000AF93BF93CF93DF93EF93FF930E94A50991
:10139000882381F0C0918D02D0E00E94D30CFE0121
:1013A000EE0FFF1FE255FD4F9183808381E0809314
:1013B0008B0252C080918B02882309F44DC0C091EA
:1013C0008D02D0E00E94D30CFE01EE0FFF1FE2560B
:1013D000FD4F9183808360918D02862F90E0880F6E
:1013E000991FFC01E256FD4F40815181FC01E255FD
:1013F000FD4F20813181FC01E257FD4F4217530719
:1014000048F0421B530B5093BF024093BE025183DE
:1014100040830AC0241B350B209530953093BF02C2
:101420002093BE023183208310928B0281E0860FCD
:10143000863018F480938D0202C010928D0281E0F4
:1014400090E000908D0202C0880F991F0A94E2F785
:1014500080938C0280936D00FF91EF91DF91CF918B
:10146000BF91AF919F918F917F916F915F914F91BC
:101470003F912F910F900BBE0F900FBE0F901F90BA
:10148000189580938C0280936D0008952F923F925F
:101490004F925F926F927F928F929F92AF92BF9284
:1014A000CF92DF92EF92FF920F931F93CF93DF9330
:1014B00000D01F92CDB7DEB72091950330919603EF
:1014C00040919703509198030E941D020CE212E094
:1014D000F801408051806280738020E3222E22E058
:1014E000322EF101C080D180E280F380E4E3F2E0AB
:1014F000208131814281538129833A834B835C83EC
:101500006093910370939203809393039093940359
:101510002AE037ED43EA5CE30E944D029B01AC01F7
:101520006091990370919A0380919B0390919C0321
:101530000E94F1016093990370939A0380939B0337
:1015400090939C0338E2A32E32E0B32EA3019201C4
:101550006FE672E183E89AE30E941D02A7019601FB
:101560000E941D022AE037ED43EA5CE30E944D022F
:101570009B01AC01F50160817181828193810E94A0
:10158000F101F501608371838283938369817A819C
:101590008B819C8190582AE037ED43EA5CE30E94FE
:1015A0004D024B015C019B01AC01C301B2010E94E1
:1015B000F101F8016083718382839383A501940113
:1015C000C701B6010E94F101F1016083718382833A
:1015D000938322E838EA4BEF57E369817A818B8164
:1015E0009C810E94F101E4E3F2E0608371838283D5
:1015F00093830F900F900F900F90DF91CF911F91D9
:101600000F91FF90EF90DF90CF90BF90AF909F90A1
:101610008F907F906F905F904F903F902F900895A4
:101620002F923F924F925F926F927F928F929F92F2
:10163000AF92BF92CF92DF92EF92FF920F931F93E0
:10164000CF93DF93CDB7DEB760970FB6F894DEBFC8
:101650000FBECDBF2091990330919A0340919B0317
:1016600050919C032D833E834F8358870E941D0217
:101670006D877E878F87988BA8E2B2E08D909D90D2
:10168000AD90BC9040E3242E42E0342ED1012D9148
:101690003D914D915C9129873A874B875C872FE676
:1016A00032E143E85AE3C501B4010E94F1016B0144
:1016B0007C019B01AC01C501B4010E943203698326
:1016C0007A838B839C83A701960169857A858B85B4
:1016D0009C850E9432036B017C010CE212E0F80150
:1016E0004080518062807380A501940169817A8174
:1016F0008B819C810E944D029B01AC01C501B4010C
:101700000E941D02A8E2B2E06D937D938D939C939D
:101710001397A301920169817A818B819C810E9438
:101720004D029B01AC01C301B2010E941D02F801F0
:101730006083718382839383A5019401C701B601FD
:101740000E944D029B01AC0169857A858B859C8541
:101750000E941D02D1016D937D938D939C931397ED
:1017600004E312E0A3019201C701B6010E944D02F9
:101770009B01AC01F80160817181828193810E949B
:101780001D02D8016D937D938D939C9313972D85A6
:101790003E854F85588969817A818B819C810E9421
:1017A0004D029B01AC016D817E818F8198850E94E5
:1017B000F1016093990370939A0380939B03909334
:1017C0009C032D853E854F855889C701B6010E942F
:1017D0004D029B01AC01609195037091960380913D
:1017E0009703909198030E94F10160939503709381
:1017F0009603809397039093980360960FB6F8949E
:10180000DEBF0FBECDBFDF91CF911F910F91FF9033
:10181000EF90DF90CF90BF90AF909F908F907F9090
:101820006F905F904F903F902F90089580E184B922
:10183000E1E0F1E080E4808381EA8093B00086E01B
:101840008093B10088E380833AEA3093A00021E1DD
:101850002093A10080E795E49093A7008093A600D1
:101860001092A9001092A8001092AB001092AA004A
:101870001092AD001092AC008DB188638DB9309399
:1018800090002093910081E795E4909397008093D6
:101890009600109299001092980010929B0010925E
:1018A0009A0010929D0010929C00EAE0F1E04081C5
:1018B00048634083309320012093210190932701B6
:1018C00080932601109229011092280110922B0179
:1018D00010922A0110922D0110922C0108958B3044
:1018E00008F056C061157105A1F09B01823030F4FB
:1018F0002E5131092F31310560F04AC0285E334046
:10190000293E334008F044C093E0660F771F9A9554
:10191000E1F790E0FC013197EA30F10520F4EE5850
:10192000FF4F0C94AD0E6093B3002FC06093B400D2
:101930002CC07093AD006093AC0027C07093AB00D7
:101940006093AA0022C07093A9006093A8001DC0F4
:1019500070939D0060939C0018C070939B006093EF
:101960009A0013C070939900609398000EC0709312
:101970002D0160932C0109C070932B0160932A0103
:1019800004C0709329016093280180E090E00895DD
:1019900081E090E008950C946F0C1092800083E039
:1019A000809381000895809184009091850008952E
:1019B0001092B20082E08093B00085E08093B10085
:1019C0008DE78093B300E0E7F0E080818260808360
:1019D000789408951F920F920FB60F9211248F934F
:1019E0009F93AF93BF9380919D0390919E03A0918D
:1019F0009F03B091A0030196A11DB11D80939D038B
:101A000090939E03A0939F03B093A003BF91AF91C7
:101A10009F918F910F900FBE0F901F901895F89483
:101A200060919D0370919E0380919F039091A0030C
:101A30007894089528E12093C10026E02093C20005
:101A40009093C5008093C40008959091C00095FFC5
:101A5000FCCF8093C60080E090E00895CF93DF93A1
:101A6000EC0102C00E94250D89918111FBCFDF910D
:101A7000CF9108951F93CF93DF93EC01FE01149152
:101A8000812F0E94250D112311F02196F7CFDF91B0
:101A9000CF911F910895CF93DF93CDB7DEB72A97EB
:101AA0000FB6F894DEBF0FBECDBF4AE050E0BE01D6
:101AB0006F5F7F4F0E94F10ECE0101960E942E0DA6
:101AC0002A960FB6F894DEBF0FBECDBFDF91CF913F
:101AD00008958091C00087FFFCCF8091C6000895D3
:101AE0001F920F920FB60F9211248F938091C60010
:101AF0008093C0028F910F900FBE0F901F9018958A
:101B00001F920F920FB60F9211240BB60F921BBEAD
:101B10002F933F934F935F936F937F938F939F93F5
:101B2000AF93BF93EF93FF9383E592E00E942E0D56
:101B3000FF91EF91BF91AF919F918F917F916F91A5
:101B40005F914F913F912F910F900BBE0F900FBE61
:101B50000F901F9018951F920F920FB60F9211249D
:101B60002F933F938F939F93AF93BF938091C20224
:101B70009091C302A091C402B091C5023091C102FC
:101B800023E0230F2D3720F40196A11DB11D05C0C0
:101B900026E8230F0296A11DB11D2093C102809358
:101BA000C2029093C302A093C402B093C502809175
:101BB000C6029091C702A091C802B091C9020196D5
:101BC000A11DB11D8093C6029093C702A093C802C5
:101BD000B093C902BF91AF919F918F913F912F9187
:101BE0000F900FBE0F901F9018952FB7F89460912B
:101BF000C2027091C3028091C4029091C5022FBFAE
:101C000008950F931F934FB7F89406B510E020E0A6
:101C100030E0A89B09C0011511052105310521F40B
:101C200000E011E020E030E08091C6029091C70210
:101C3000A091C802B091C9024FBF6627782F892FA3
:101C40009A2F600F711F821F931F52E0660F771F3C
:101C5000881F991F5A95D1F71F910F9108958F9260
:101C60009F92AF92BF92CF92DF92EF92FF926B0161
:101C70007C010E94F50D4B015C010E94F50D681975
:101C800079098A099B09C616D706E806F906A8F756
:101C9000FF90EF90DF90CF90BF90AF909F908F908C
:101CA00008950197009751F0880F991F880F991F89
:101CB00002972FB7F8940197F1F72FBF0895789402
:101CC00084B5826084BD84B5816084BD85B5826041
:101CD00085BD85B5816085BDEEE6F0E080818160DF
:101CE0008083E1E8F0E08081826080838081816090
:101CF0008083E0E8F0E0808181608083E1EBF0E0C8
:101D0000808184608083E0EBF0E08081816080836B
:101D1000EAE7F0E080818460808380818260808354
:101D20008081816080838081806880831092C1007F
:101D30000895AA1BBB1B51E107C0AA1FBB1FA61712
:101D4000B70710F0A61BB70B881F991F5A95A9F764
:101D500080959095BC01CD010895EE0FFF1F059071
:101D6000F491E02D19942F923F924F925F926F92CF
:101D70007F928F929F92AF92BF92CF92DF92EF921B
:101D8000FF920F931F93CF93DF93CDB7DEB7CA1B9C
:101D9000DB0B0FB6F894DEBF0FBECDBF19942A88B7
:101DA000398848885F846E847D848C849B84AA846F
:101DB000B984C884DF80EE80FD800C811B81AA81FC
:101DC000B981CE0FD11D0FB6F894DEBF0FBECDBFC7
:101DD000ED010895FB01DC0101900D920020E1F777
:101DE0000895FB019F01E8944230C4F04532B4F4F9
:101DF0004A3029F497FB1EF4909581959F4F642FEC
:101E000077270E94990E805D8A330CF0895D81935B
:101E1000CB010097A1F716F45DE251931082C9013E
:101E20000C945F110F931F93CF93DF93CDB7DEB761
:101E300060970FB6F894DEBF0FBECDBF088D198D29
:101E400086E08C831A8309838FEF9FE79E838D83BF
:101E5000AE01445E5F4F588B4F876A8D7B8DCE01FC
:101E600001960E94430FEF81F885E00FF11F108269
:101E700060960FB6F894DEBF0FBECDBFDF91CF9155
:101E80001F910F9108952F923F924F925F926F9200
:101E90007F928F929F92AF92BF92CF92DF92EF92FA
:101EA000FF920F931F93CF93DF93CDB7DEB72C979D
:101EB0000FB6F894DEBF0FBECDBF7C016B018A0167
:101EC000FC0117821682838181FFC7C18824839415
:101ED000912C8C0E9D1EF7019381F60193FD859147
:101EE00093FF81916F01882309F4B3C1853239F4DE
:101EF00093FD859193FF81916F01853229F4B7019C
:101F000090E00E946F11E7CF712C312C20E020323D
:101F1000A8F48B3261F028F4803251F0833271F4EE
:101F20000BC08D3239F0803349F4216028C0226023
:101F3000246025C0286023C0206121C027FD27C060
:101F4000382F30533A3078F426FF06C0FAE07F9EEF
:101F5000300D1124732E13C08AE0389E300D1124E9
:101F6000332E20620CC08E3221F426FD72C1206413
:101F700006C08C3611F4206802C0883641F4F601A0
:101F800093FD859193FF81916F018111C0CF982FAF
:101F90009554933018F09052933028F40C5F1F4FF3
:101FA000FFE3F9830DC0833631F0833771F0833559
:101FB00009F05EC023C0F801808189830E5F1F4F46
:101FC00066246394712C540115C02801F2E04F0E71
:101FD000511CF801A080B18026FF03C0672D70E07E
:101FE00002C06FEF7FEFC5012C870E9454113C01A6
:101FF00082012C856FE7262E222218C02801F2E0EC
:102000004F0E511CF801A080B18026FF03C0672D40
:1020100070E002C06FEF7FEFC5012C870E9449116D
:102020003C012C8550E8252E222A820123FC1CC06D
:1020300006C0B70180E290E00E946F113A94832DB0
:1020400090E068167906A8F30FC0F50127FC85918A
:1020500027FE81915F01B70190E00E946F1131105E
:102060003A94F1E06F1A71086114710471F7EEC0CF
:10207000843611F0893641F5F80127FF07C06081E9
:102080007181828193810C5F1F4F08C060817181D3
:10209000882777FD8095982F0E5F1F4F4FE6642E9F
:1020A000622297FF09C090958095709561957F4F4A
:1020B0008F4F9F4FF0E86F2A2AE030E0A4010E9482
:1020C0009B11A82EA81844C0853731F43FEEB32EDB
:1020D000B2222AE030E024C099EFB92EB2228F3626
:1020E000B9F020F4883509F0B4C00DC0803721F074
:1020F000883709F0AEC002C020E1B22AB4FE0BC09E
:1021000084E0B82A08C024FF09C0E6E0BE2A06C061
:1021100028E030E005C020E130E002C020E132E0FC
:10212000F801B7FE07C060817181828193810C5FE5
:102130001F4F06C06081718180E090E00E5F1F4FED
:10214000A4010E949B11A82EA8188FE7682E6B206F
:1021500066FE0BC0362D3E7FA71450F464FE0AC005
:1021600062FC08C0362D3E7E05C0BA2C362D03C059
:10217000BA2C01C0B72C34FF0DC0FE01EA0DF11DD1
:102180008081803311F4397E09C032FF06C0B394D8
:10219000B39404C0832F867809F0B39433FD14C040
:1021A00030FF0FC07A2CB31460F4730C7B18B32C7F
:1021B00008C0B70180E290E03C870E946F11B394A1
:1021C0003C85B314B0F304C0B31410F43B1801C041
:1021D000312C34FF12C0B70180E390E03C870E94AD
:1021E0006F113C8532FF1EC031FF03C088E590E0CF
:1021F00002C088E790E0B7010CC0832F867891F089
:1022000031FD02C080E201C08BE237FD8DE2B701F3
:1022100090E00E946F1106C0B70180E390E00E9439
:102220006F117A94A714C0F3AA94F401EA0DF11D7A
:10223000B701808190E00E946F11A110F5CF06C018
:10224000B70180E290E00E946F113A943110F8CF0C
:1022500042CEF7012681378102C02FEF3FEFC9013F
:102260002C960FB6F894DEBF0FBECDBFDF91CF9195
:102270001F910F91FF90EF90DF90CF90BF90AF90A4
:102280009F908F907F906F905F904F903F902F9096
:102290000895FC010590615070400110D8F78095B9
:1022A00090958E0F9F1F0895FC0161507040019022
:1022B0000110D8F7809590958E0F9F1F0895DC012F
:1022C000FC01672F71917723E1F7329704C07C916D
:1022D0006D9370836291AE17BF07C8F308950F9393
:1022E0001F93CF93DF938C01EB018B8181FD03C0A2
:1022F0000FEF1FEF1AC082FF0DC02E813F818C812E
:102300009D812817390764F4E881F9810193F983E5
:10231000E88306C0E885F985802F1995892B41F758
:102320008E819F8101969F838E83C801DF91CF911B
:102330001F910F910895FA01AA27283051F12031F9
:1023400081F1E8946F936E7F6E5F7F4F8F4F9F4F49
:10235000AF4FB1E03ED0B4E03CD0670F781F891F8B
:102360009A1FA11D680F791F8A1F911DA11D6A0F59
:10237000711D811D911DA11D20D009F468943F910C
:102380002AE0269F11243019305D3193DEF6CF010B
:102390000895462F4770405D4193B3E00FD0C9F7D1
:1023A000F6CF462F4F70405D4A3318F0495D31FD3E
:1023B0004052419302D0A9F7EACFB4E0A695979591
:1023C000879577956795BA95C9F700976105710567
:1023D00008959B01AC010A2E0694579547953795B1
:1023E0002795BA95C9F7620F731F841F951FA01D0B
:0623F0000895F894FFCFF0
:1023F600736F6D65206368617261637465727300E3
:1024060000000000000000000000000000000000C6
:1024160000000000000000000000803F00000000F7
:10242600000000000000803F0000000000000000E7
:102436004779726F73636F70650020256420256489
:102446000D0A00547820496E746572727570740AAC
:022456000D0077
:00000001FF
