:100000000C94F3000C9414010C9414010C9414013E
:100010000C9414010C9414010C9414010C9414010C
:100020000C9414010C9414010C9414010C94EA0522
:100030000C9414010C9448090C9414010C941401B0
:100040000C9414010C9414010C9414010C941401DC
:100050000C9414010C9414010C9414010C94430B93
:100060000C9414010C94530A0C9414010C94930AEC
:100070000C9414010C9414010C9414010C941401AC
:100080000C9414010C9414010C9414010C9414019C
:100090000C94630A0C9414010C94BF0A0C94140180
:1000A0000C9414010C9414010C9414010C9414017C
:1000B0000C9414010C9414010C9414010C9414016C
:1000C0000C9414010C9414010C9414010C94730AF4
:1000D0000C9414010C94EB0A0C94830A0C941401F4
:1000E0000C94170B6E616E00696E660000407A100A
:1000F000F35A00A0724E18090010A5D4E80000E8D9
:100100007648170000E40B54020000CA9A3B000036
:1001100000E1F505000080969800000040420F00C5
:100120000000A08601000000102700000000E80386
:10013000000000006400000000000A000000000051
:100140000100000000002C76D888DC674F0823DF10
:10015000C1DFAE59E1B1B796E5E3E453C63AE651E3
:10016000997696E8E6C28426EB898C9B62ED407C0A
:100170006FFCEFBC9C9F40F2BAA56FA5F490055AA6
:100180002AF75C936B6CF9676DC11BFCE0E40D47CB
:10019000FEF520E6B500D0ED902E030094357705EE
:1001A0000080841E080000204E0A000000C80C33A6
:1001B0003333330F986E12831141EF8D2114893B35
:1001C000E65516CFFEE6DB18D1844B381BF77C1DB5
:1001D000901DA4BBE424203284725E228100C9F108
:1001E00024ECA1E53D2711241FBECFEFD1E2DEBFF5
:1001F000CDBF00E00CBF12E0A0E0B2E0ECEBF6E215
:1002000000E00BBF02C007900D92AC34B107D9F7E4
:1002100013E0ACE4B2E001C01D92A138B107E1F7F0
:100220000E9422010C945C130C9400002EEF280F06
:1002300081E090E0243010F480E090E0089581E0C7
:1002400090E0089563E370E080E090E00E947E0912
:100250000E945E082FEF87EA91E62150804090408F
:10026000E1F700C0000082E00E94900160E070E0D1
:1002700082E00E94BA012FEF87EA91E62150804088
:100280009040E1F700C0000064E670E082E00E9468
:10029000BA012FEF87EA91E6215080409040E1F7C4
:1002A00000C0000068EC70E082E00E94BA012FEF0D
:1002B00087EA91E6215080409040E1F700C00000BD
:1002C00060E971E082E00E94BA012FEF87EA91E6CF
:1002D000215080409040E1F700C0000068E572E0E6
:1002E00082E00E94BA012FEF87EA91E62150804018
:1002F0009040E1F700C0000060E273E082E00E94FD
:10030000BA012FEF87EA91E6215080409040E1F753
:1003100000C0000082E090E00E94D1017894FFCFFD
:10032000CF93C82F8EEF8C0F843000F568E077E014
:100330008C2F0E94B7082AEA34ED8CE191E021501D
:10034000304080409040D9F7000068EE73E08C2F79
:100350000E94B7082FEF3FE483EC215030408040EB
:10036000E1F700C0000080E090E002C081E090E092
:10037000CF9108959EEF980F943080F468517C4F90
:10038000693E93E0790750F493E0660F771F9A95E2
:10039000E1F70E94B70880E090E0089581E090E0E6
:1003A00008959EEF980F943038F460E070E00E945A
:1003B000B70880E090E0089581E090E008958FE331
:1003C0009CE90197F1F700C0000040E16DE080E496
:1003D0000E94A4058FE39CE90197F1F700C000009B
:1003E00060E280E40E94BF05482F4F70406160E2E8
:1003F00080E40E94A4058FE39CE90197F1F700C017
:10040000000060E380E40E94BF05482F4C7F60E35A
:1004100080E40E94A4058FE39CE90197F1F700C0F6
:1004200000000895FF920F931F93CF93DF932091C5
:100430002A0230912B022115310509F480C0ECE429
:10044000F2E0C3E3D3E00CE413E0F12C24363105F1
:1004500021F4108211821282138248815981662709
:1004600057FD6095762F80819181A281B381840FA1
:10047000951FA61FB71F81939193A193B1931992D2
:100480001992D8011D921D928D01F394B3E0FB12D5
:10049000DDCF2130310509F04CC080914C029091A4
:1004A0004D02A0914E02B0914F029F5FAF4FBF4FE0
:1004B00049E0B595A795979587954A95D1F790937B
:1004C0004D0380934C038091500290915102A09172
:1004D0005202B09153029F5FAF4FBF4F59E0B595A5
:1004E000A795979587955A95D1F790934F03809349
:1004F0004E038091540290915502A0915602B09102
:1005000057029F5FAF4FBF4F69E0B595A79597958D
:1005100087956A95D1F78F5F9109909351038093E6
:1005200050031092D8021092D7021092DA02109261
:10053000D9022150310930932B0220932A02809155
:1005400033039091340320914C0330914D03821B6F
:10055000930B9093340380933303809135039091F0
:10056000360320914E0330914F03821B930B9093DF
:10057000360380933503809137039091380320919F
:10058000500330915103821B930B90933803809357
:100590003703DF91CF911F910F91FF9008958F92B4
:1005A0009F92AF92BF92CF92DF92EF92FF920F9302
:1005B0001F93CF93DF935C017B01EA018CE0809372
:1005C000B80062E080E40E949E0573E3872E73E02A
:1005D000972E80913E0390E0982F882720913D032D
:1005E000822B9195819591099595879595958795FC
:1005F000F40191838083A5E3CA2EA3E0DA2E8091D3
:10060000400390E0982F882720913F03822B9195FB
:10061000819591099595879595958795F601918393
:10062000808307E313E08091420390E0982F8827AE
:1006300020914103822B9595879595958795F80193
:10064000918380830E941202F40160817181882766
:1006500077FD8095982F0E94AA102FE230E940E2A2
:100660005BE30E943611F50160837183828393837B
:10067000F60160817181882777FD8095982F0E940F
:10068000AA102FE230E940E25BE30E943611F70145
:100690006083718382839383F801608171818827ED
:1006A00077FD8095982F0E94AA102FE230E940E252
:1006B0005BE30E943611688379838A839B83DF9191
:1006C000CF911F910F91FF90EF90DF90CF90BF904F
:1006D000AF909F908F9008952FEF81EE94E021507E
:1006E00080409040E1F700C0000040E86EE388E6FB
:1006F0000E94A4058FE19EE40197F1F700C000007D
:100700004BE166E188E60E94A4058FE19EE4019733
:10071000F1F700C0000043E06EE388E60E94A40504
:100720009FEF21EE84E0915020408040E1F700C02F
:10073000000008950F931F93CF93DF931F921F9292
:10074000CDB7DEB78C018CE08093B80022E030E0BA
:10075000AE014F5F5F4F6BE188E60E946D05398106
:1007600020E08A81A901482BCA0168E171E00E945A
:100770009911F801718360830F900F90DF91CF91F1
:100780001F910F910895DF92EF92FF920F931F93A5
:10079000CF93DF938091670390916803892B09F4CD
:1007A00064C0CEE5D2E03DE2E32E33E0F32E0FE568
:1007B00013E0D12C2091670330916803211582E06A
:1007C000380721F4188219821A821B82F7014081AE
:1007D0005181662757FD6095762F88819981AA817E
:1007E000BB81840F951FA61FB71F88839983AA8397
:1007F000BB8311821082F8011182108221303105F1
:1008000009F585E693E00E949A0310926A0310921C
:10081000690310926C0310926B0310926E03109296
:100820006D0388819981AA81BB819F5FAF4FBF4FC4
:1008300029E0B595A795979587952A95D1F7F80161
:1008400091838083D3942496F2E0EF0EF11C0E5F27
:100850001F4F83E0D812AECF809167039091680359
:1008600001979093680380936703EFE5F3E0CDE28F
:10087000D3E0AAE6B2E08191919128813981281BC9
:10088000390B4D915C911197CA0180529340281702
:1008900039073CF0CA01805E9C4F281739070CF4D9
:1008A000C901899399938D939D9383E0E536F80769
:1008B00011F7DF91CF911F910F91FF90EF90DF9093
:1008C00008958F929F92AF92BF92CF92DF92EF9254
:1008D000FF920F931F93CF93DF936C015B014A014B
:1008E0008CE08093B8006DE188E60E949E054DE2A1
:1008F000E42E43E0F42E30913D0320E080913E034E
:10090000282B3595279535952795F7013183208339
:100910000FE213E030913F0320E080914003282B49
:100920003595279535952795F80131832083C1E3C7
:10093000D3E03091410320E080914203282B35958C
:10094000279535952795398328830E94C303F7019E
:1009500080819181F60191838083F801808191816A
:10096000F5019183808388819981F401918380834B
:10097000DF91CF911F910F91FF90EF90DF90CF907B
:10098000BF90AF909F908F900895861797072CF097
:10099000BA01841795070CF4BC01CB01089558984F
:1009A00059981092B9008CE08093B80084E080934D
:1009B000BC00089584E98093BC0008958FEF90E017
:1009C0000EC0019761F41092BC008091700290916A
:1009D00071020196909371028093700208952091A4
:1009E000BC0027FFEECF0895CF93C82F882311F0C6
:1009F00084EC01C084E88093BC000E94DE048091F6
:100A0000BB00C11103C094E99093BC00CF9108953D
:100A100080E00C94F4048093BB0084E88093BC00D5
:100A20000C94DE040F931F93CF93DF931F92CDB7E7
:100A3000DEB70CEB10E094EAF801908389830E9402
:100A4000DE0489818093BB0084E8F80180830F90E5
:100A5000DF91CF911F910F910C94DE0484EC809371
:100A6000BC000E94DE048091BB000895CF92DF920B
:100A7000EF92FF920F931F93CF93DF931F921F92DA
:100A8000CDB7DEB77A01880F816069837A830E94CF
:100A900012058701015011096981C62E7A81D72E6E
:100AA0000CC081E00115110509F480E00E94F404F6
:100AB000F60181936F01015011090F3FFFEF1F07EE
:100AC00081F7C7010F900F90DF91CF911F910F9188
:100AD000FF90EF90DF90CF900895CF92DF92FF923A
:100AE0000F931F93CF93DF931F92CDB7DEB7F82EEE
:100AF0006A018901880F69830E9412056981862F26
:100B00000E940B05A801B6018F2D0F90DF91CF91A8
:100B10001F910F91FF90DF90CF900C943605FB0151
:100B20003197E80FF91FDC0105C08C9190819D93EE
:100B300080833197AE17BF07C0F3089526E030E0F9
:100B40004DE353E00C946D05CF93DF931F921F92FA
:100B5000CDB7DEB7880F4A8369830E941205698189
:100B6000862F0E940B054A81842F0E940B0584E981
:100B70008093BC000F900F90DF91CF910895CF9399
:100B8000DF931F92CDB7DEB721E030E0AE014F5FBB
:100B90005F4F0E946D0589810F90DF91CF9108957D
:100BA000109207018FEF8093080184E08093680022
:100BB00081E08093730280936D0008958091060117
:100BC0009091730289239091A70298278093A7029E
:100BD000892308951F920F920FB60F9211240BB61E
:100BE0000F921BBE2F933F934F935F936F937F930F
:100BF0008F939F93AF93BF93CF93DF93EF93FF9325
:100C00000E94DE05882381F0C0917402D0E00E942A
:100C10003009FE01EE0FFF1FEB56FD4F91838083DD
:100C200081E08093720252C080917202882309F49D
:100C30004DC0C0917402D0E00E943009FE01EE0F59
:100C4000FF1FEB57FD4F918380838091740290E0EA
:100C5000880F991FFC01EB57FD4F40815181FC012A
:100C6000EB56FD4F20813181FC01EB58FD4F4217BF
:100C7000530748F0421B530B5093A6024093A50222
:100C8000518340830AC0241B350B20953095309347
:100C9000A6022093A50231832083109272028091D4
:100CA00074028F5F863018F48093740202C0109231
:100CB000740281E090E00090740202C0880F991FD6
:100CC0000A94E2F78093730280936D00FF91EF9195
:100CD000DF91CF91BF91AF919F918F917F916F9154
:100CE0005F914F913F912F910F900BBE0F900FBED0
:100CF0000F901F9018958093730280936D00089554
:100D00002F923F924F925F926F927F928F929F921B
:100D1000AF92BF92CF92DF92EF92FF920F931F9309
:100D2000CF93DF9320917503309176034091770341
:100D3000509178030E94DB0FFB01A0E3B2E04D90DD
:100D40005D906D907C90A4E3B2E08D909D90AD900D
:100D5000BC9028E3222E22E0322ED101CD90DD90EE
:100D6000ED90FC90462F5F2F682F792F40937103F1
:100D70005093720360937303709374032AE037ED0A
:100D800043EA5CE36E2F7F2F0E9436119B01AC017A
:100D90006091790370917A0380917B0390917C0339
:100DA0000E94DC0F6093790370937A0380937B0336
:100DB00090937C03CCE2D2E0A30192016FE672E152
:100DC00083E89AE30E94DB0FA50194010E94DB0FE8
:100DD0002AE037ED43EA5CE30E9436119B01AC0147
:100DE000688179818A819B810E94DC0F6883798385
:100DF0008A839B83C701B60190582AE037ED43EA06
:100E00005CE30E9436118B01D82FC92F762FCE01BB
:100E1000272F312F492F582FC301B2010E94DC0F19
:100E2000E0E3F2E06083718382839383CE01202F1D
:100E3000312F492F582FC501B4010E94DC0FA4E3C4
:100E4000B2E06D937D938D939C93139722E838EADB
:100E50004BEF57E3C701B6010E94DC0FF10160833D
:100E6000718382839383DF91CF911F910F91FF90C4
:100E7000EF90DF90CF90BF90AF909F908F907F903A
:100E80006F905F904F903F902F9008952F923F92D8
:100E90004F925F926F927F928F929F92AF92BF928A
:100EA000CF92DF92EF92FF920F931F93CF93DF9336
:100EB000CDB7DEB72E970FB6F894DEBF0FBECDBF0D
:100EC0002091790330917A0340917B0350917C0308
:100ED0002B833C834D835E830E94DB0F6F83788777
:100EE00089879A87ECE2F2E0C080D180E280F380CB
:100EF000E4E3F2E040805180628073802FE632E1CB
:100F000043E85AE3C701B6010E94DC0F8B015C0184
:100F1000762F272F312F4A2D5B2DC701B6010E9456
:100F200040101B0189839A83202F312F4A2D5B2D7E
:100F3000C301B2010E9440108B018E879B87E0E3C2
:100F4000F2E080809180A280B380A7019601E981C0
:100F5000FA81622D732DCF010E9436119B01AC01E5
:100F6000C701B6010E94DB0FECE2F2E060837183FF
:100F700082839383A5019401E981FA81622D732D07
:100F8000CF010E9436119B01AC01C501B4010E9442
:100F9000DB0FE0E3F2E06083718382839383A70138
:100FA0009601FE85EB85602F712F8F2F9E2F0E945B
:100FB00036119B01AC01C301B2010E94DB0FE4E3D7
:100FC000F2E0608371838283938338E3E32E32E01F
:100FD000F32EA5019401FE85EB85602F712F8F2FD5
:100FE0009E2F0E9436119B01AC01F7016081718137
:100FF000828193810E94DB0FF7016083718382837A
:1010000093837F81688599858A85272F362F492F7D
:10101000582FF980EA80622D732D8F2D9E2D0E940E
:1010200036119B01AC016B817C818D819E810E9478
:10103000DC0F6093790370937A0380937B03909322
:101040007C037F81688599858A85272F362F492FD4
:10105000582FFE85EB85602F712F8F2F9E2F0E94BA
:1010600036119B01AC0160917503709176038091FC
:101070007703909178030E94DC0F6093750370935F
:10108000760380937703909378032E960FB6F894A7
:10109000DEBF0FBECDBFDF91CF911F910F91FF90AB
:1010A000EF90DF90CF90BF90AF909F908F907F9008
:1010B0006F905F904F903F902F90089580E184B99A
:1010C000E1E0F1E080E4808381EA8093B00086E093
:1010D0008093B10088E380833AEA3093A00021E155
:1010E0002093A10080E795E49093A7008093A60049
:1010F0001092A9001092A8001092AB001092AA00C2
:101100001092AD001092AC008DB188638DB9309310
:1011100090002093910081E795E49093970080934D
:101120009600109299001092980010929B001092D5
:101130009A0010929D0010929C00EAE0F1E040813C
:10114000486340833093200120932101909327012D
:1011500080932601109229011092280110922B01F0
:1011600010922A0110922D0110922C0108958B30BB
:1011700008F06AC061157105B1F09B01823038F446
:101180002E5131092F31310508F05EC00EC0285EA6
:101190003340293E334008F057C093E0660F771F75
:1011A0009A95E1F702C060E070E08530B9F158F43B
:1011B0008230D9F018F4813091F414C08330D1F02A
:1011C000843069F41CC0883071F128F48630E1F075
:1011D000873029F41EC0893059F18A3071F160934B
:1011E000B3002FC06093B4002CC07093AD00609327
:1011F000AC0027C07093AB006093AA0022C070932C
:10120000A9006093A8001DC070939D0060939C008E
:1012100018C070939B0060939A0013C0709399005C
:10122000609398000EC070932D0160932C0109C04B
:1012300070932B0160932A0104C07093290160937D
:10124000280120E030E002C021E030E0C90108952B
:101250000C94B7081092800083E080938100089579
:101260002091840030918500C90108951092B20048
:1012700082E08093B00085E08093B1008DE7809399
:10128000B300E0E7F0E08081826080837894089585
:101290001F920F920FB60F9211248F939F93AF93CB
:1012A000BF9380917D0390917E03A0917F03B091C5
:1012B00080030196A11DB11D80937D0390937E0351
:1012C000A0937F03B0938003BF91AF919F918F91C3
:1012D0000F900FBE0F901F9018950F931F93F894C7
:1012E00000917D0310917E0320917F033091800354
:1012F0007894B801C9011F910F910895813091052B
:1013000091F030F082309105C9F0039711F1089502
:1013100088E18093C10086E08093C2007093C5008D
:101320006093C400089588E18093C90086E08093AB
:10133000CA007093CD006093CC00089588E180933B
:10134000D10086E08093D2007093D5006093D400E2
:10135000089588E18093310186E080933201709393
:1013600035016093340108958130910571F030F0BA
:101370008230910589F00397B1F01BC08091C000C5
:1013800085FFFCCF6093C60014C08091C80085FF24
:10139000FCCF6093CE000DC08091D00085FFFCCFC4
:1013A0006093D60006C08091300185FFFCCF60932A
:1013B000360180E090E008950F931F93CF93DF9361
:1013C0008C01EB016991662321F0C8010E94B409E8
:1013D000F9CFDF91CF911F910F910895FF920F9355
:1013E0001F93CF93DF938C01EB01FE01F4906F2DDF
:1013F000C8010E94B409FF2011F02196F6CFDF91B9
:10140000CF911F910F91FF9008950F931F93CF934A
:10141000DF93CDB7DEB72A970FB6F894DEBF0FBEC5
:10142000CDBF8C01CB014AE050E0BE016F5F7F4F22
:101430000E949B12BE016F5F7F4FC8010E94DC09B2
:101440002A960FB6F894DEBF0FBECDBFDF91CF91C5
:101450001F910F9108958130910571F030F0823025
:10146000910589F00397B1F01CC08091C00087FFFF
:10147000FCCF8091C60008958091C80087FFFCCF03
:101480008091CE0008958091D00087FFFCCF80919D
:10149000D60008958091300187FFFCCF80913601FE
:1014A000089580E008951F920F920FB60F921124B5
:1014B0008F938091C6008093A8028F910F900FBEEA
:1014C0000F901F9018951F920F920FB60F92112434
:1014D0008F938091CE008093A8028F910F900FBEC2
:1014E0000F901F9018951F920F920FB60F92112414
:1014F0008F938091D6008093A8028F910F900FBE9A
:101500000F901F9018951F920F920FB60F921124F3
:101510008F93809136018093A8028F910F900FBE18
:101520000F901F9018951F920F920FB60F921124D3
:101530000BB60F922F933F934F935F936F937F93CD
:101540008F939F93AF93BF93EF93FF936CE372E0FE
:1015500080E090E00E94DC09FF91EF91BF91AF9194
:101560009F918F917F916F915F914F913F912F91BB
:101570000F900BBE0F900FBE0F901F9018951F92EB
:101580000F920FB60F9211240BB60F922F933F9329
:101590004F935F936F937F938F939F93AF93BF937B
:1015A000EF93FF936CE372E081E090E00E94DC092E
:1015B000FF91EF91BF91AF919F918F917F916F912B
:1015C0005F914F913F912F910F900BBE0F900FBEE7
:1015D0000F901F9018951F920F920FB60F92112423
:1015E0000BB60F922F933F934F935F936F937F931D
:1015F0008F939F93AF93BF93EF93FF936CE372E04E
:1016000082E090E00E94DC09FF91EF91BF91AF91E1
:101610009F918F917F916F915F914F913F912F910A
:101620000F900BBE0F900FBE0F901F9018951F923A
:101630000F920FB60F9211240BB60F922F933F9378
:101640004F935F936F937F938F939F93AF93BF93CA
:10165000EF93FF936CE372E083E090E00E94DC097B
:10166000FF91EF91BF91AF919F918F917F916F917A
:101670005F914F913F912F910F900BBE0F900FBE36
:101680000F901F9018951F920F920FB60F92112472
:101690002F933F938F939F93AF93BF938091A90212
:1016A0009091AA02A091AB02B091AC023091B1022C
:1016B000232F2D5F2D3720F40196A11DB11D05C0EC
:1016C000232F2A570296A11DB11D2093B1028093AA
:1016D000A9029093AA02A093AB02B093AC028091AE
:1016E000AD029091AE02A091AF02B091B00201960E
:1016F000A11DB11D8093AD029093AE02A093AF02E5
:10170000B093B002BF91AF919F918F913F912F9174
:101710000F900FBE0F901F9018950F931F938FB7C8
:10172000F8940091A9021091AA022091AB02309185
:10173000AC028FBFB801C9011F910F9108950F939B
:101740001F934FB7F89486B590E0A0E0B0E0A89B57
:1017500008C00097A105B10521F480E091E0A0E068
:10176000B0E00091AD021091AE022091AF02309135
:10177000B0024FBF322F212F102F0027080F191F43
:101780002A1F3B1F52E0000F111F221F331F5A95C3
:10179000D1F7B801C9011F910F9108958F929F92BF
:1017A000AF92BF92CF92DF92EF92FF926B017C01DA
:1017B0000E948D0B4B015C010E948D0B6819790909
:1017C0008A099B09C616D706E806F906A8F7FF900E
:1017D000EF90DF90CF90BF90AF909F908F90089543
:1017E000019751F0880F991F880F991F02972FB703
:1017F000F8940197F1F72FBF0895789484B582602B
:1018000084BD84B5816084BD85B5826085BD85B5A4
:10181000816085BDEEE6F0E0808181608083E1E853
:10182000F0E0808182608083808181608083E0E855
:10183000F0E0808181608083E1EBF0E08081846072
:101840008083E0EBF0E0808181608083EAE7F0E074
:1018500080818460808380818260808380818160D8
:1018600080838081806880831092C10008952F92C8
:101870003F924F925F926F927F928F929F92AF9220
:10188000BF92CF92DF92EF92FF920F931F93CF936D
:10189000DF93CDB7DEB763970FB6F894DEBF0FBE08
:1018A000CDBF7C011B016A01FC0117821682838176
:1018B00081FF66C3BE016F5F7F4F4B01F7019381CC
:1018C000F10193FD859193FF81911F01882309F414
:1018D00053C3853239F493FD859193FF81911F01A4
:1018E000853239F4B70190E00E94BC1256016501BF
:1018F000E5CF10E0512C20E02032A0F48B3269F0CB
:1019000030F4803259F0833269F420612CC08D327A
:1019100039F0803339F4216026C02260246023C06E
:10192000286021C027FD27C030ED380F3A3078F409
:1019300026FF06C0FAE01F9F300D1124132F13C09D
:101940006AE0569E300D1124532E20620CC08E3258
:1019500021F426FD11C3206406C08C3611F42068E2
:1019600002C0883641F4F10193FD859193FF819186
:101970001F018111C1CF9BEB980F933018F42061A8
:10198000805E06C09BE9980F933008F0AAC12F7EB5
:1019900026FF16E02F73722E853621F4F22FF064A5
:1019A0007F2E08C0863621F4622F6068762E02C032
:1019B0001111115077FE07C01C3348F4442443949E
:1019C000410E27E00BC0183030F4212F06C027E06D
:1019D0004CE3442E03C027E017E0412C560174E08D
:1019E000A70EB11CF6016081718182819381042D63
:1019F000A4010E94AD116C01098100FF02C003FF28
:101A000006C071FC07C072FC08C0612C08C03DE232
:101A1000632E05C02BE2622E02C090E2692E802F59
:101A20008C7099F1662011F084E001C083E0851587
:101A300010F0512C0BC0581A73FC08C0B70180E29B
:101A400090E00E94BC125A94C9F7F3CF662029F0A7
:101A5000B701862D90E00E94BC1203FD03C008EE82
:101A600010E002C004EE10E0F72DF0717F2EF801B7
:101A70008491882309F476C271108052B70190E0F6
:101A80000E94BC120F5F1F4FF2CF77FE0FC04C0CAD
:101A900004FF04C08A81813309F44A94141474F554
:101AA000F8E0F41578F588E0482E2CC076FC2AC0C2
:101AB000812F90E08C159D059CF06CEFC6166FEFA2
:101AC000D60674F0772D7068772E0AC0E2E0F0E059
:101AD000EC0FFD1FE10FF11D8081803319F41150CF
:101AE0001111F4CF77FE0EC044244394410E812F90
:101AF00090E0C816D9062CF41C1904C04424439461
:101B000001C010E077FE07C01C141D043CF49601D0
:101B10002F5F3F4F05C025E030E002C021E030E0FC
:101B2000662011F02F5F3F4F112331F0412F50E01D
:101B30004F5F5F4F240F351F452D50E024173507A9
:101B400014F4521A01C0512C872D897049F4552084
:101B500039F0B70180E290E00E94BC125A94F7CFAE
:101B6000662029F0B701862D90E00E94BC1273FC1C
:101B700009C0552039F0B70180E390E00E94BC1203
:101B80005A94F7CF77FE5FC09C2D8D2DD7FE02C0F3
:101B900090E080E0692E782E40E050E0C601841984
:101BA00091099D878C87960126193709280D391DC3
:101BB000812F90E0EE27FF27E81BF90BFF87EE87C8
:101BC000FFEF6F167F0669F4B7018EE290E02B8B72
:101BD0003A8B488B598B0E94BC12598948893A89A3
:101BE0002B89C614D70454F06C857D85661577055E
:101BF0002CF4F901E40FF51F818101C080E371E04D
:101C0000671A71084F5F5F4FEE85FF856E167F067E
:101C10006CF0B70190E02B8B3A8B488B598B0E946C
:101C2000BC122B893A8948895989CACF6C147D0422
:101C300039F49A81963318F4953311F404FF81E353
:101C4000B70190E04BC08A81813309F00F7EB70164
:101C500090E00E94BC12111105C074FE18C085E40A
:101C600090E017C0B7018EE290E00E94BC1282E0C3
:101C700066246394680EF401E80FF11D8081B701BA
:101C800090E00E94BC12115041F3862DF1CF85E601
:101C900090E0B7010E94BC12D7FC05C0C114D1046A
:101CA00039F404FF05C0D194C194D1088DE201C07C
:101CB0008BE2B70190E00E94BC1280E36AE0C61696
:101CC000D1042CF08F5FFAE0CF1AD108F7CFB7011B
:101CD00090E00E94BC12B701C601C0960E94BC12DF
:101CE00041C1833631F0833779F0833509F058C02C
:101CF00021C0560172E0A70EB11CF60180818983D4
:101D000001E010E0640114C05601F2E0AF0EB11C16
:101D1000F601C080D18026FF03C0612F70E002C0B1
:101D20006FEF7FEFC6012B8B0E9490128C012B89E5
:101D30002F7715C05601F2E0AF0EB11CF601C0803E
:101D4000D18026FF03C0612F70E002C06FEF7FEFEC
:101D5000C6012B8B0E9485128C012B892068722E64
:101D600023FD1AC0852D90E008171907A8F4B701C4
:101D700080E290E00E94BC125A94F4CFF60177FC06
:101D8000859177FE81916F01B70190E00E94BC12AE
:101D900051105A94015011090115110579F7E2C04B
:101DA000843611F0893651F5560127FF09C0F4E059
:101DB000AF0EB11CF60160817181828193810AC0EE
:101DC000F2E0AF0EB11CF60160817181882777FDCA
:101DD0008095982F022F0F7697FF08C090958095D9
:101DE000709561957F4F8F4F9F4F00682AE030E0DC
:101DF000A4010E94EE12C82EC8183EC0022F8537DB
:101E000021F40F7E2AE030E01DC0097F8F3691F06B
:101E100018F4883559F0B0C0803719F0883711F0C0
:101E2000ABC0006104FF09C0046007C024FF08C004
:101E3000066006C028E030E005C020E130E002C0C6
:101E400020E132E0560107FF09C0F4E0AF0EB11CFB
:101E5000F601608171818281938108C0F2E0AF0E4A
:101E6000B11CF6016081718180E090E0A4010E94C4
:101E7000EE12C82EC8180F7706FF0BC0202F2E7F3A
:101E8000C11650F404FF0AC002FD08C0202F2E7EA8
:101E900005C0DC2C202F03C0DC2C01C0D12E24FF78
:101EA0000DC0FE01EC0DF11D8081803311F4297EFF
:101EB00009C022FF06C0D394D39404C0822F867831
:101EC00009F0D39423FD13C020FF06C01C2DD514A8
:101ED00018F4150D1D19D52CD51468F4B70180E23E
:101EE00090E02B8B0E94BC12D3942B89F5CFD51494
:101EF00010F45D1801C0512C24FF12C0B70180E31B
:101F000090E02B8B0E94BC122B8922FF17C021FF6F
:101F100003C088E590E002C088E790E0B7010CC0FC
:101F2000822F867859F021FD02C080E201C08BE249
:101F300027FD8DE2B70190E00E94BC12C11638F473
:101F4000B70180E390E00E94BC121150F7CFCA9411
:101F5000F401EC0DF11D8081B70190E00E94BC12EC
:101F6000C110F5CF552009F4C2CCB70180E290E052
:101F70000E94BC125A94F6CFF7018681978102C065
:101F80008FEF9FEF63960FB6F894DEBF0FBECDBF05
:101F9000DF91CF911F910F91FF90EF90DF90CF9045
:101FA000BF90AF909F908F907F906F905F904F9079
:101FB0003F902F9008955058BB27AA270ED01CC1E0
:101FC0000DD130F012D120F031F49F3F11F41EF406
:101FD00002C10EF4E095E7FBF8C0E92F1ED180F3B3
:101FE000BA17620773078407950718F071F49EF516
:101FF00036C10EF4E0950B2EBA2FA02D0B01B901BE
:1020000090010C01CA01A0011124FF27591B99F06E
:10201000593F50F4503E68F11A16F040A22F232F7A
:10202000342F4427585FF3CF469537952795A795CA
:10203000F0405395C9F77EF41F16BA0B620B730B71
:10204000840BBAF09150A1F0FF0FBB1F661F771FE2
:10205000881FC2F70EC0BA0F621F731F841F48F497
:10206000879577956795B795F7959E3F08F0B3CF1D
:102070009395880F08F09927EE0F97958795089507
:102080000CD0BAC0B2D040F0A9D030F021F45F3FFC
:1020900019F09BC05111E4C09EC0BFD098F39923A2
:1020A000C9F35523B1F3951B550BBB27AA2762171C
:1020B0007307840738F09F5F5F4F220F331F441F61
:1020C000AA1FA9F333D00E2E3AF0E0E830D0915099
:1020D0005040E695001CCAF729D0FE2F27D0660F86
:1020E000771F881FBB1F261737074807AB07B0E8C5
:1020F00009F0BB0B802DBF01FF2793585F4F2AF0DB
:102100009E3F510568F061C0ABC05F3FECF3983E65
:10211000DCF3869577956795B795F7959F5FC9F737
:10212000880F911D9695879597F90895E1E0660FC0
:10213000771F881FBB1F621773078407BA0720F039
:10214000621B730B840BBA0BEE1F88F7E0950895A2
:10215000E89409C097FB3EF4909580957095619541
:102160007F4F8F4F9F4F9923A9F0F92F96E9BB27F7
:102170009395F695879577956795B795F111F8CF73
:10218000FAF4BB0F11F460FF1BC06F5F7F4F8F4FDE
:102190009F4F16C0882311F096E911C0772321F0D4
:1021A0009EE8872F762F05C0662371F096E8862F6C
:1021B00070E060E02AF09A95660F771F881FDAF7C3
:1021C000880F9695879597F9089597F99F6780E806
:1021D00070E060E008959FEF80EC089500240A9479
:1021E0001616170618060906089500240A941216F2
:1021F0001306140605060895092E0394000C11F425
:10220000882352F0BB0F40F4BF2B11F460FF04C0D1
:102210006F5F7F4F8F4F9F4F089557FD9058440F2A
:10222000551F59F05F3F71F04795880F97FB991F35
:1022300061F09F3F79F087950895121613061406F2
:10224000551FF2CF4695F1DF08C01616170618067F
:10225000991FF1CF86957105610508940895E8945A
:10226000BB2766277727CB0197F908950BD0C4CFFA
:10227000B5DF28F0BADF18F0952309F0A6CFABCF71
:102280001124EECFCADFA0F3959FD1F3950F50E054
:10229000551F629FF001729FBB27F00DB11D639F18
:1022A000AA27F00DB11DAA1F649F6627B00DA11DBE
:1022B000661F829F2227B00DA11D621F739FB00D64
:1022C000A11D621F839FA00D611D221F749F3327D4
:1022D000A00D611D231F849F600D211D822F762F6D
:1022E0006A2F11249F5750408AF0E1F088234AF06A
:1022F000EE0FFF1FBB1F661F771F881F91505040B6
:10230000A9F79E3F510570F060CFAACF5F3FECF375
:10231000983EDCF3869577956795B795F795E795A1
:102320009F5FC1F7FE2B880F911D9695879597F9B2
:102330000895AA1BBB1B51E107C0AA1FBB1FA6170C
:10234000B70710F0A61BB70B881F991F5A95A9F75E
:1023500080959095BC01CD010895283008F027E0C4
:102360003327DA01990F311D87FD916000966105D1
:10237000710539F432602E5F3D9330E32A95E1F721
:1023800008959F3F30F080387105610509F03C5F8A
:102390003C5F3D93913008F08068911DDF93CF93AF
:1023A0001F930F93FF92EF92192F987F9695E92F25
:1023B00096959695E90FFF27EA5BFE4F99273327FD
:1023C000EE24FF24A701E70105900894079428F460
:1023D000360FE71EF81E491F511D660F771F881F15
:1023E000991F0694A1F70590079428F4E70EF81EAC
:1023F000491F561FC11D770F881F991F661F06941E
:10240000A1F70590079428F4F80E491F561FC71F1F
:10241000D11D880F991F661F771F0694A1F705909D
:10242000079420F4490F561FC71FD81F990F661F26
:10243000771F881F0694A9F784911095177041F0B3
:10244000D695C79557954795F794E7941A95C1F790
:10245000ECEEF0E0689415901591359165919591A9
:1024600005907FE27395E118F10A430B560BC90BF7
:10247000D009C0F7E10CF11E431F561FC91FD01D24
:102480007EF4703311F48A95E6CFE894015030F071
:10249000080F0AF40027021708F4202F2395022FB3
:1024A0007A3328F079E37D932A95E9F710C07D937C
:1024B0002A9589F6069497956795379517951794F9
:1024C000E118F10A430B560BC90BD00998F023957C
:1024D0007E9173957A3308F070E37C932013B8F7FC
:1024E0007E9170617D9330F0839571E37D9370E30D
:1024F0002A95E1F71124EF90FF900F911F91CF9152
:10250000DF91992787FD90950895FC010590615012
:1025100070400110D8F7809590958E0F9F1F0895F9
:10252000FC016150704001900110D8F780959095A2
:102530008E0F9F1F0895FB019F01E8944230C4F065
:102540004532B4F44A3029F497FB1EF490958195F6
:102550009F4F642F77270E949911805D8A330CF07A
:10256000895D8193CB010097A1F716F45DE2519349
:102570001082C9010C944C130F931F93CF93DF93D8
:10258000182F092FEB018B8181FD03C08FEF9FEF87
:1025900020C082FF10C04E815F812C813D81421797
:1025A00053077CF4E881F9819F012F5F3F4F398306
:1025B0002883108306C0E885F985812F1995892B1A
:1025C00029F72E813F812F5F3F4F3F832E83812F3D
:1025D000902FDF91CF911F910F910895FA01AA27B3
:1025E000283051F1203181F1E8946F936E7F6E5F56
:1025F0007F4F8F4F9F4FAF4FB1E03ED0B4E03CD004
:10260000670F781F891F9A1FA11D680F791F8A1FE6
:10261000911DA11D6A0F711D811D911DA11D20D04D
:1026200009F468943F912AE0269F11243019305D07
:102630003193DEF6CF010895462F4770405D4193F8
:10264000B3E00FD0C9F7F6CF462F4F70405D4A3345
:1026500018F0495D31FD4052419302D0A9F7EACF0D
:10266000B4E0A6959795879577956795BA95C9F73C
:1026700000976105710508959B01AC010A2E06942F
:102680005795479537952795BA95C9F7620F731FE8
:10269000841F951FA01D0895DC01FC01672F719117
:1026A0007723E1F7329704C07C916D937083629138
:0C26B000AE17BF07C8F30895F894FFCFE1
:1026BC00E803736F6D6520636861726163746572A2
:1026CC00730000000000000000000000000000008B
:1026DC000000000000000000000001000000803F2E
:1026EC0000000000000000000000803F54782049EA
:0C26FC006E746572727570740A0D000037
:00000001FF
