:100000000C9490000C94B1000C94B1000C94B100CD
:100010000C94B1000C94B1000C94B1000C94B1009C
:100020000C94B1000C94B1000C94B1000C943C05FC
:100030000C94B1000C9475080C94B1000C94B100B0
:100040000C94B1000C94B1000C94B1000C94B1006C
:100050000C94B1000C94B1000C94B1000C943509CF
:100060000C94B1000C94FB080C94B1000C940B0997
:100070000C94B1000C94B1000C94B1000C94B1003C
:100080000C94B1000C94B1000C94B1000C94B1002C
:100090000C94B1000C94B1000C94B1000C94B1001C
:1000A0000C94B1000C94B1000C94B1000C94B1000C
:1000B0000C94B1000C94B1000C94B1000C94B100FC
:1000C0000C94B1000C94B1000C94B1000C94B100EC
:1000D0000C94B1000C94B1000C94B1000C94B100DC
:1000E0000C94B1002108240829082E083D08330883
:1000F0003808420847084C080C9447080C944208FA
:100100000C9421080C943D080C942E080C944C0877
:100110000C9429080C9438080C9424080C94330887
:1001200011241FBECFEFD1E2DEBFCDBF00E00CBF78
:1001300012E0A0E0B2E0E2EEF7E100E00BBF02C0A7
:1001400007900D92AA34B107D9F713E0AAE4B2E000
:1001500001C01D92A138B107E1F70E94BF000C94C5
:10016000EF0B0C9400002EEF280F81E090E024307C
:1001700010F480E090E0089581E090E0089583E33A
:1001800090E00E94A5080E94A1077894C8EED3E0F1
:100190006091000270910102603D87E0780740F5B0
:1001A00085E00E94FA07609100027091010285E0EB
:1001B0000E94FA07609100027091010285E00E949E
:1001C000FA07609100027091010285E00E94FA072F
:1001D0008091000290910102019690930102809318
:1001E00000028FE99FE00197F1F700C00000D0CF37
:1001F000D0930102C0930002CBCFCF93C82F8EEFD4
:100200008C0F8430F8F460ED77E08C2F0E94FA07B1
:100210002FEF87EA91E6215080409040E1F700C03F
:10022000000068EE73E08C2F0E94FA072FEF87EA38
:1002300091E6215080409040E1F700C0000080E04E
:1002400090E002C081E090E0CF9108958B3080F47F
:100250009B01285E3340293E334050F493E0660F03
:10026000771F9A95E1F70E94FA0780E090E00895E1
:1002700081E090E008958B3038F460E070E00E94F7
:10028000FA0780E090E0089581E090E008958FE320
:100290009CE90197F1F700C0000040E16DE080E4C7
:1002A0000E94F6048FE19EE40197F1F700C0000080
:1002B00060E280E40E941105482F4F7060E280E404
:1002C0000E94F6048FE19EE40197F1F700C0000060
:1002D00060E380E40E941105482F4C7F60E380E4D6
:1002E0000E94F6048FE19EE40197F1F700C0000040
:1002F00065E380E40E941105482F417F4A6065E371
:1003000080E40E94F6048FE19EE40197F1F700C0BB
:1003100000000895FF920F931F93CF93DF932091D6
:10032000B0023091B1022115310509F481C0EAE42F
:10033000F2E0C3E3D3E00CE413E0F12C211582E0FA
:10034000380721F410821182128213824881598168
:10035000662757FD6095762F80819181A281B381B8
:10036000840F951FA61FB71F81939193A193B193FB
:1003700019921992D8011D921D928D01F394B3E048
:10038000FB12DCCF2130310509F04CC080914A02CC
:1003900090914B02A0914C02B0914D029F5FAF4FE4
:1003A000BF4F49E0B595A795979587954A95D1F7A1
:1003B00090934D0380934C0380914E0290914F0295
:1003C000A0915002B09151029F5FAF4FBF4F59E0D3
:1003D000B595A795979587955A95D1F790934F0323
:1003E00080934E038091520290915302A091540247
:1003F000B09155029F5FAF4FBF4F69E0B595A7958C
:10040000979587956A95D1F78F5F910990935103DE
:10041000809350031092D8021092D7021092DA0201
:100420001092D902215031093093B1022093B002C9
:10043000809133039091340320914C0330914D030C
:10044000821B930B90933403809333038091350385
:100450009091360320914E0330914F03821B930BF2
:10046000909336038093350380913703909138033E
:100470002091500330915103821B930B90933803CA
:1004800080933703DF91CF911F910F91FF900895D3
:100490008F929F92AF92BF92CF92DF92EF92FF9294
:1004A0000F931F93CF93DF93EC018B017A018CE0C4
:1004B0008093B80062E080E40E94F00473E3C72EEA
:1004C00073E0D72E20913E0330E0322F2227809117
:1004D0003D03282B319521953109F6013183208385
:1004E000F5E3AF2EF3E0BF2E2091400330E0322F32
:1004F000222780913F03282B319521953109F50161
:1005000031832083B7E38B2EB3E09B2E20914203EF
:1005100030E0322F222780914103282BF4013183D0
:1005200020830E948A01F6018081918199838883CA
:10053000F50180819181F80191838083F4018081AC
:100540009181F70191838083DF91CF911F910F916A
:10055000FF90EF90DF90CF90BF90AF909F908F90E3
:1005600008952FEF81EE94E0215080409040E1F714
:1005700000C0000040E86EE388E60E94F6048FE1C8
:100580009EE40197F1F700C000004BE166E188E6C8
:100590000E94F6048FE19EE40197F1F700C000008D
:1005A00043E06EE388E60E94F6049FEF21EE84E0CC
:1005B000915020408040E1F700C0000008950F9363
:1005C0001F93CF93DF931F921F92CDB7DEB78C019D
:1005D0008CE08093B80022E030E0AE014F5F5F4FC7
:1005E0006BE188E60E94BD04898190E0982F8827FE
:1005F0002A81822B68E171E00E94230AF80171834D
:1006000060830F900F90DF91CF911F910F9108950C
:10061000DF92EF92FF920F931F93CF93DF9380911E
:10062000670390916803892B09F464C0C2E6D2E0A5
:100630004DE2E42E43E0F42E0FE513E053E0D52E17
:100640002091670330916803211582E0380721F477
:10065000188219821A821B82F70140815181662714
:1006600057FD6095762F88819981AA81BB81840F7F
:10067000951FA61FB71F88839983AA83BB83118206
:100680001082F801118210822130310509F585E6CA
:1006900093E00E94DF0210926A03109269031092A5
:1006A0006C0310926B0310926E0310926D0388819D
:1006B0009981AA81BB819F5FAF4FBF4F39E0B5954C
:1006C000A795979587953A95D1F7F80191838083FF
:1006D000DA942496F2E0EF0EF11C0E5F1F4FD1105A
:1006E000AFCF80916703909168030197909368035F
:1006F00080936703EFE5F3E0CDE2D3E0ACE5B2E051
:100700008191919128813981281B390B4D915C9100
:100710001197CA0180529340281739073CF0CA014B
:10072000805E9C4F281739070CF4C901899399936F
:100730008D939D9383E0E536F80711F7DF91CF9114
:100740001F910F91FF90EF90DF9008958F929F92ED
:10075000AF92BF92CF92DF92EF92FF920F931F93CF
:10076000CF93DF93EC018B017A018CE08093B8008A
:100770006DE188E60E94F0046DE2C62E63E0D62E9D
:1007800020913D0330E0322F222780913E03282B19
:100790003595279535952795F60131832083FFE21E
:1007A000AF2EF3E0BF2E20913F0330E0322F2227FF
:1007B00080914003282B3595279535952795F50190
:1007C0003183208381E3882E83E0982E209141039A
:1007D00030E0322F222780914203282B3595279530
:1007E00035952795F401318320830E940803F60193
:1007F0008081918199838883F50180819181F801BD
:1008000091838083F40180819181F70191838083BA
:10081000DF91CF911F910F91FF90EF90DF90CF90DC
:10082000BF90AF909F908F900895861797072CF0F8
:10083000481759071CF4CA010895CB010895589828
:1008400059981092B9008CE08093B80084E08093AE
:10085000BC00089584E98093BC0008958FEF90E078
:100860002091BC0027FD0FC001970097C9F7109297
:10087000BC0080916E0290916F02019690936F027E
:1008800080936E02089508950F931F93CF93DF9383
:100890001F92CDB7DEB70CEB10E094EAF80190831D
:1008A00089830E942E0489818093BB0084E8F8012B
:1008B00080830F90DF91CF911F910F910C942E04A4
:1008C0008093BB0084E88093BC000C942E04CF93EB
:1008D000C82F882311F084EC01C084E88093BC0009
:1008E0000E942E048091BB00C11103C094E9909333
:1008F000BC00CF91089580E00C94670484EC809351
:10090000BC000E942E048091BB000895CF92DF921C
:10091000EF92FF920F931F93CF93DF931F921F923B
:10092000CDB7DEB77A01880F816069837A830E9430
:1009300044048701015011096981C62E7A81D72E9E
:100940000F3FFFEF1F0769F081E00115110509F462
:1009500080E00E946704F60181936F010150110944
:10096000EFCFC7010F900F90DF91CF911F910F91A3
:10097000FF90EF90DF90CF900895CF92DF92FF929B
:100980000F931F93CF93DF931F92CDB7DEB7F82E4F
:100990006A018901880F69830E9444046981862F56
:1009A0000E946004A801B6018F2D0F90DF91CF91B6
:1009B0001F910F91FF90DF90CF900C9486046150AF
:1009C0007109680F791FFC01E617F70740F4808171
:1009D000DB019C9191938C9361507109F5CF08953F
:1009E00026E030E04DE353E00C94BD04CF93DF9359
:1009F0001F921F92CDB7DEB7880F4A8369830E948A
:100A000044046981862F0E9460044A81842F0E94D9
:100A1000600484E98093BC000F900F90DF91CF9128
:100A20000895CF93DF931F92CDB7DEB721E030E07A
:100A3000AE014F5F5F4F0E94BD0489810F90DF912F
:100A4000CF910895109207018FEF8093080184E001
:100A50008093680081E08093720280936D00089516
:100A600080910601909172028923909170029827DB
:100A700080937002892308951F920F920FB60F92F0
:100A800011240BB60F922F933F934F935F936F9365
:100A90007F938F939F93AF93BF93CF93DF93EF9306
:100AA000FF930E943005882381F0C0917302D0E04B
:100AB0000E945E08FE01EE0FFF1FEC56FD4F918372
:100AC000808381E08093710252C0809171028823FB
:100AD00009F44DC0C0917302D0E00E945E08FE018F
:100AE000EE0FFF1FEC57FD4F9183808360917302DF
:100AF000862F90E0880F991FFC01EC57FD4F408135
:100B00005181FC01EC56FD4F20813181FC01EC58F4
:100B1000FD4F4217530748F0421B530B5093A50259
:100B20004093A402518340830AC0241B350B2095B7
:100B300030953093A5022093A40231832083109234
:100B4000710281E0860F863018F48093730202C030
:100B50001092730281E090E00090730202C0880F4F
:100B6000991F0A94E2F78093720280936D00FF91BF
:100B7000EF91DF91CF91BF91AF919F918F917F9135
:100B80006F915F914F913F912F910F900BBE0F90FE
:100B90000FBE0F901F9018958093720280936D0086
:100BA00008952F923F924F925F926F927F928F9211
:100BB0009F92AF92BF92CF92DF92EF92FF920F93EC
:100BC0001F93CF93DF9300D01F92CDB7DEB7209154
:100BD00075033091760340917703509178030E941A
:100BE0003D0A0EE212E0F80140805180628073807D
:100BF00022E3222E22E0322EF101C080D180E28059
:100C0000F380E6E3F2E02081318142815381298340
:100C10003A834B835C836093710370937203809378
:100C20007303909374032AE037ED43EA5CE30E9478
:100C30005B0B9B01AC016091790370917A03809109
:100C40007B0390917C030E943E0A6093790370932A
:100C50007A0380937B0390937C033AE2A32E32E0E5
:100C6000B32EA30192016FE672E183E89AE30E943A
:100C70003D0AA70196010E943D0A2AE037ED43EAAA
:100C80005CE30E945B0B9B01AC01F501608171810B
:100C9000828193810E943E0AF50160837183828381
:100CA000938369817A818B819C8190582AE037ED0A
:100CB00043EA5CE30E945B0B4B015C019B01AC01CE
:100CC000C301B2010E943E0AF801608371838283EE
:100CD0009383A5019401C701B6010E943E0AF10168
:100CE000608371838283938322E838EA4BEF57E372
:100CF00069817A818B819C810E943E0AE6E3F2E061
:100D000060837183828393830F900F900F900F9075
:100D1000DF91CF911F910F91FF90EF90DF90CF90D7
:100D2000BF90AF909F908F907F906F905F904F900B
:100D30003F902F9008952F923F924F925F926F9223
:100D40007F928F929F92AF92BF92CF92DF92EF925B
:100D5000FF920F931F93CF93DF93CDB7DEB76097CA
:100D60000FB6F894DEBF0FBECDBF2091790330914E
:100D70007A0340917B0350917C032D833E834F8304
:100D800058870E943D0A6D877E878F87988BAAE2DD
:100D9000B2E08D909D90AD90BC9042E3242E42E055
:100DA000342ED1012D913D914D915C9129873A8747
:100DB0004B875C872FE632E143E85AE3C501B40173
:100DC0000E943E0A6B017C019B01AC01C501B4018C
:100DD0000E94A20A69837A838B839C83A701960170
:100DE00069857A858B859C850E94A20A6B017C01AE
:100DF0000EE212E0F8014080518062807380A5010C
:100E0000940169817A818B819C810E945B0B9B019B
:100E1000AC01C501B4010E943D0AAAE2B2E06D93A3
:100E20007D938D939C931397A301920169817A819D
:100E30008B819C810E945B0B9B01AC01C301B201C1
:100E40000E943D0AF8016083718382839383A50128
:100E50009401C701B6010E945B0B9B01AC0169853F
:100E60007A858B859C850E943D0AD1016D937D9387
:100E70008D939C93139706E312E0A3019201C7019F
:100E8000B6010E945B0B9B01AC01F801608171818E
:100E9000828193810E943D0AD8016D937D938D9349
:100EA0009C9313972D853E854F85588969817A815A
:100EB0008B819C810E945B0B9B01AC016D817E81CB
:100EC0008F8198850E943E0A6093790370937A031C
:100ED00080937B0390937C032D853E854F855889B5
:100EE000C701B6010E945B0B9B01AC0160917503C9
:100EF0007091760380917703909178030E943E0A67
:100F000060937503709376038093770390937803CF
:100F100060960FB6F894DEBF0FBECDBFDF91CF91C4
:100F20001F910F91FF90EF90DF90CF90BF90AF9007
:100F30009F908F907F906F905F904F903F902F90F9
:100F4000089580E184B9E1E0F1E080E4808381EA02
:100F50008093B00086E08093B10088E380833AEA12
:100F60003093A00021E12093A10080E795E49093C5
:100F7000A7008093A6001092A9001092A8001092DA
:100F8000AB001092AA001092AD001092AC008DB18F
:100F900088638DB9309390002093910081E795E4A8
:100FA0009093970080939600109299001092980069
:100FB00010929B0010929A0010929D0010929C003B
:100FC000EAE0F1E0408148634083309320012093C0
:100FD00021019093270180932601109229011092FC
:100FE000280110922B0110922A0110922D011092CB
:100FF0002C0108958B3008F056C061157105A1F0E1
:101000009B01823030F42E5131092F31310560F0CF
:101010004AC0285E3340293E334008F044C093E084
:10102000660F771F9A95E1F790E0FC013197EA305F
:10103000F10520F4EE58FF4F0C94370A6093B3008B
:101040002FC06093B4002CC07093AD006093AC00CF
:1010500027C07093AB006093AA0022C07093A900D0
:101060006093A8001DC070939D0060939C0018C001
:1010700070939B0060939A0013C0709399006093E3
:1010800098000EC070932D0160932C0109C07093DD
:101090002B0160932A0104C07093290160932801F9
:1010A00080E090E0089581E090E008950C94FA07C4
:1010B0001092800083E080938100089580918400E5
:1010C0009091850008951092B20082E08093B00064
:1010D00085E08093B1008DE78093B300E0E7F0E016
:1010E000808182608083789408951F920F920FB65A
:1010F0000F9211248F939F93AF93BF9380917D03A1
:1011000090917E03A0917F03B09180030196A11D71
:10111000B11D80937D0390937E03A0937F03B093D2
:101120008003BF91AF919F918F910F900FBE0F9051
:101130001F901895F89460917D0370917E038091C3
:101140007F03909180037894089528E12093C10053
:1011500026E02093C2009093C5008093C4000895B8
:101160009091C00095FFFCCF8093C60080E090E096
:101170000895CF93DF93EC018991882319F00E94A1
:10118000B008FACFDF91CF9108951F93CF93DF93EB
:10119000EC01FE011491812F0E94B008112311F07F
:1011A0002196F7CFDF91CF911F910895CF93DF93D1
:1011B000CDB7DEB72A970FB6F894DEBF0FBECDBF0E
:1011C0004AE050E0BE016F5F7F4F0E94BE0BCE0130
:1011D00001960E94B9082A960FB6F894DEBF0FBE9A
:1011E000CDBFDF91CF9108958091C00087FFFCCFE4
:1011F0008091C60008951F920F920FB60F9211248E
:101200008F938091C6008093A6028F910F900FBE9E
:101210000F901F9018951F920F920FB60F921124E6
:101220000BB60F922F933F934F935F936F937F93E0
:101230008F939F93AF93BF93EF93FF938AE392E0D3
:101240000E94B908FF91EF91BF91AF919F918F914B
:101250007F916F915F914F913F912F910F900BBEB6
:101260000F900FBE0F901F9018951F920F920FB600
:101270000F9211242F933F938F939F93AF93BF931C
:101280008091A8029091A902A091AA02B091AB020C
:101290003091A70223E0230F2D3720F40196A11DE2
:1012A000B11D05C026E8230F0296A11DB11D209394
:1012B000A7028093A8029093A902A093AA02B093D8
:1012C000AB028091AC029091AD02A091AE02B091C0
:1012D000AF020196A11DB11D8093AC029093AD02A7
:1012E000A093AE02B093AF02BF91AF919F918F9147
:1012F0003F912F910F900FBE0F901F9018952FB711
:10130000F8946091A8027091A9028091AA0290912C
:10131000AB022FBF08950F931F934FB7F89406B5F4
:1013200010E020E030E0A89B09C00115110521055F
:10133000310521F400E011E020E030E08091AC02C2
:101340009091AD02A091AE02B091AF024FBF66275F
:10135000782F892F9A2F600F711F821F931F52E0E1
:10136000660F771F881F991F5A95D1F71F910F910C
:1013700008958F929F92AF92BF92CF92DF92EF9299
:10138000FF926B017C010E947F094B015C010E946E
:101390007F09681979098A099B09C616D706E806E4
:1013A000F906A8F7FF90EF90DF90CF90BF90AF9035
:1013B0009F908F9008950197009751F0880F991F83
:1013C000880F991F02972FB7F8940197F1F72FBF55
:1013D0000895789484B5826084BD84B5816084BDAD
:1013E00085B5826085BD85B5816085BDEEE6F0E09E
:1013F000808181608083E1E8F0E080818260808389
:10140000808181608083E0E8F0E08081816080837A
:10141000E1EBF0E0808184608083E0EBF0E08081AC
:1014200081608083EAE7F0E080818460808380814E
:1014300082608083808181608083808180688083F6
:101440001092C1000895AA1BBB1B51E107C0AA1F3F
:10145000BB1FA617B70710F0A61BB70B881F991F55
:101460005A95A9F780959095BC01CD010895EE0F8E
:10147000FF1F0590F491E02D19945058BB27AA271F
:101480000ED0DFC0D0D030F0D5D020F031F49F3F67
:1014900011F41EF4C5C00EF4E095E7FBBBC0E92FC4
:1014A000E1D080F3BA17620773078407950718F035
:1014B00071F49EF5F9C00EF4E0950B2EBA2FA02D15
:1014C0000B01B90190010C01CA01A0011124FF27F1
:1014D000591B99F0593F50F4503E68F11A16F040EC
:1014E000A22F232F342F4427585FF3CF46953795EB
:1014F0002795A795F0405395C9F77EF41F16BA0BB0
:10150000620B730B840BBAF09150A1F0FF0FBB1F5D
:10151000661F771F881FC2F70EC0BA0F621F731FA6
:10152000841F48F4879577956795B795F7959E3F03
:1015300008F0B3CF9395880F08F09927EE0F979591
:10154000879508950CD07DC075D040F06CD030F0F8
:1015500021F45F3F19F05EC05111A7C061C082D075
:1015600098F39923C9F35523B1F3951B550BBB276A
:10157000AA2762177307840738F09F5F5F4F220F17
:10158000331F441FAA1FA9F333D00E2E3AF0E0E810
:1015900030D091505040E695001CCAF729D0FE2F5C
:1015A00027D0660F771F881FBB1F261737074807EE
:1015B000AB07B0E809F0BB0B802DBF01FF279358A4
:1015C0005F4F2AF09E3F510568F024C06EC05F3F18
:1015D000ECF3983EDCF3869577956795B795F7958C
:1015E0009F5FC9F7880F911D9695879597F9089584
:1015F000E1E0660F771F881FBB1F62177307840720
:10160000BA0720F0621B730B840BBA0BEE1F88F72E
:10161000E095089597F99F6780E870E060E008958D
:101620009FEF80EC089500240A94161617061806FA
:101630000906089500240A941216130614060506D6
:101640000895092E0394000C11F4882352F0BB0F67
:1016500040F4BF2B11F460FF04C06F5F7F4F8F4FCA
:101660009F4F089557FD9058440F551F59F05F3F05
:1016700071F04795880F97FB991F61F09F3F79F0B4
:1016800087950895121613061406551FF2CF469536
:10169000F1DF08C0161617061806991FF1CF8695B8
:1016A0007105610508940895E894BB27662777279C
:1016B000CB0197F908950BD0C4CFB5DF28F0BADF7E
:1016C00018F0952309F0A6CFABCF1124EECFCADFD7
:1016D000A0F3959FD1F3950F50E0551F629FF00145
:1016E000729FBB27F00DB11D639FAA27F00DB11D9E
:1016F000AA1F649F6627B00DA11D661F829F222727
:10170000B00DA11D621F739FB00DA11D621F839FAD
:10171000A00D611D221F749F3327A00D611D231F83
:10172000849F600D211D822F762F6A2F11249F57D1
:1017300050408AF0E1F088234AF0EE0FFF1FBB1FF4
:10174000661F771F881F91505040A9F79E3F510593
:1017500070F060CFAACF5F3FECF3983EDCF3869544
:1017600077956795B795F795E7959F5FC1F7FE2B3E
:10177000880F911D9695879597F90895FB019F0114
:10178000E8944230C4F04532B4F44A3029F497FB6F
:101790001EF4909581959F4F642F77270E94230A0E
:1017A000805D8A330CF0895D8193CB010097A1F7AE
:1017B00016F45DE251931082C9010C94DF0BDC0139
:1017C000FC01672F71917723E1F7329704C07C9178
:1017D0006D9370836291AE17BF07C8F30895F894B4
:0217E000FFCF39
:1017E200E803736F6D65206368617261637465728B
:1017F2007300000000000000000000000000000074
:10180200000000000000000000000000803F000017
:101812000000000000000000803F547820496E74F0
:0A1822006572727570740A0D000003
:00000001FF
