:100000000C9490000C94B1000C94B1000C94B100CD
:100010000C94B1000C94B1000C94B1000C94B1009C
:100020000C94B1000C94B1000C94B1000C947005C8
:100030000C94B1000C94A9080C94B1000C94B1007C
:100040000C94B1000C94B1000C94B1000C94B1006C
:100050000C94B1000C94B1000C94B1000C9469099B
:100060000C94B1000C942F090C94B1000C943F092E
:100070000C94B1000C94B1000C94B1000C94B1003C
:100080000C94B1000C94B1000C94B1000C94B1002C
:100090000C94B1000C94B1000C94B1000C94B1001C
:1000A0000C94B1000C94B1000C94B1000C94B1000C
:1000B0000C94B1000C94B1000C94B1000C94B100FC
:1000C0000C94B1000C94B1000C94B1000C94B100EC
:1000D0000C94B1000C94B1000C94B1000C94B100DC
:1000E0000C94B100550858085D086208710867084B
:1000F0006C0876087B0880080C947B080C947608C2
:100100000C9455080C9471080C9462080C948008A7
:100110000C945D080C946C080C9458080C946708B7
:1001200011241FBECFEFD1E2DEBFCDBF00E00CBF78
:1001300012E0A0E0B2E0E8EFFDE100E00BBF02C09A
:1001400007900D92A637B107D9F713E0A6E7B2E002
:1001500001C01D92A33BB107E1F70E94B6000C94C9
:10016000FA0E0C94000081E090E0089583E390E0A3
:100170000E94D9080E94E502789482E4C82E82E0A9
:10018000D82E9EE4E92E92E0F92E0AE512E068E30B
:1001900072E080E092E00E94F20B80E092E00E9428
:1001A000ED0882E792E00E94ED088091DD028F93D6
:1001B0008091DC028F93DF92CF92C0E0D2E0DF9398
:1001C000CF930E941A0CCE010E94ED0882E792E0C4
:1001D0000E94ED088091DF028F938091DE028F9361
:1001E000FF92EF92DF93CF930E941A0CCE010E94F0
:1001F000ED0882E792E00E94ED088091E1028F9382
:100200008091E0028F931F930F93DF93CF930E940F
:100210001A0CCE010E94ED0882E792E00E94ED08E0
:1002200040EE52E06EED72E08CED92E00E94DA0357
:100230002FEF80E792E0215080409040E1F700C02E
:1002400000008CE00E94E4088DB79EB742960FB67E
:10025000F8949EBF0FBE8DBF9ACFCF93C82F8EEF5D
:100260008C0F8430F8F460ED77E08C2F0E942E081C
:100270002FEF87EA91E6215080409040E1F700C0DF
:10028000000068EE73E08C2F0E942E082FEF87EAA3
:1002900091E6215080409040E1F700C0000080E0EE
:1002A00090E002C081E090E0CF9108959EEF980F1A
:1002B000993080F49B01285E3340293E334050F44E
:1002C00093E0660F771F9A95E1F70E942E0880E071
:1002D00090E0089581E090E008959EEF980F9930A6
:1002E00038F460E070E00E942E0880E090E008950D
:1002F00081E090E008958FE39CE90197F1F700C059
:10030000000040E16DE080E40E942A058FE19EE458
:100310000197F1F700C0000060E280E40E9445050B
:10032000482F4F7060E280E40E942A058FE19EE42E
:100330000197F1F700C0000060E380E40E944505EA
:10034000482F4C7F60E380E40E942A058FE19EE401
:100350000197F1F700C0000065E380E40E944505C5
:10036000482F417F4A6065E380E40E942A058FE1BF
:100370009EE40197F1F700C000000895FF920F93EB
:100380001F93CF93DF932091E2023091E302211576
:10039000310509F481C0E6E7F2E0C5E6D3E00EE7F7
:1003A00013E0F12C211582E0380721F4108211822C
:1003B0001282138248815981662757FD6095762FF6
:1003C00080819181A281B381840F951FA61FB71FE1
:1003D00081939193A193B19319921992D8011D928F
:1003E0001D928D01F394B3E0FB12DCCF2130310577
:1003F00009F04CC08091760290917702A09178022A
:10040000B09179029F5FAF4FBF4F49E0B595A79577
:10041000979587954A95D1F790937F0380937E03B4
:1004200080917A0290917B02A0917C02B0917D0232
:100430009F5FAF4FBF4F59E0B595A79597958795AB
:100440005A95D1F7909381038093800380917E0227
:1004500090917F02A0918002B09181029F5FAF4F87
:10046000BF4F69E0B595A795979587956A95D1F7A0
:100470008F5F9109909383038093820310920A0304
:100480001092090310920C0310920B0321503109B2
:100490003093E3022093E20280916503909166031A
:1004A00020917E0330917F03821B930B9093660310
:1004B0008093650380916703909168032091800386
:1004C00030918103821B930B9093680380936703A1
:1004D0008091690390916A03209182033091830394
:1004E000821B930B90936A0380936903DF91CF91F2
:1004F0001F910F91FF9008958F929F92AF92BF929C
:10050000CF92DF92EF92FF920F931F93CF93DF93DF
:10051000EC018B017A018CE08093B80062E080E40A
:100520000E94240575E6C72E73E0D72E2091700334
:1005300030E0322F222780916F03282B31952195AF
:100540003109F60131832083F7E6AF2EF3E0BF2EA9
:100550002091720330E0322F222780917103282BE3
:10056000319521953109F50131832083B9E68B2E30
:10057000B3E09B2E2091740330E0322F222780912C
:100580007303282BF401318320830E94BE01F601FE
:100590008081918199838883F50180819181F8011F
:1005A00091838083F40180819181F701918380831D
:1005B000DF91CF911F910F91FF90EF90DF90CF903F
:1005C000BF90AF909F908F9008952FEF81EE94E0B1
:1005D000215080409040E1F700C0000040E86EE309
:1005E00088E60E942A058FE19EE40197F1F700C09A
:1005F00000004BE166E188E60E942A058FE19EE457
:100600000197F1F700C0000043E06EE388E60E9426
:100610002A059FEF21EE84E0915020408040E1F7D1
:1006200000C0000008950F931F93CF93DF931F9294
:100630001F92CDB7DEB78C018CE08093B80022E02A
:1006400030E0AE014F5F5F4F6BE188E60E94F1043E
:10065000898190E0982F88272A81822B68E171E0B8
:100660000E94570AF801718360830F900F90DF9109
:10067000CF911F910F910895DF92EF92FF920F9308
:100680001F93CF93DF938091990390919A03892BC5
:1006900009F464C0CEE8D2E04FE5E42E43E0F42E46
:1006A00001E913E053E0D52E2091990330919A038C
:1006B000211582E0380721F4188219821A821B82E0
:1006C000F70140815181662757FD6095762F88811B
:1006D0009981AA81BB81840F951FA61FB71F8883AC
:1006E0009983AA83BB8311821082F8011182108240
:1006F0002130310509F587E993E00E941303109238
:100700009C0310929B0310929E0310929D031092E3
:10071000A00310929F0388819981AA81BB819F5F6A
:10072000AF4FBF4F39E0B595A795979587953A9507
:10073000D1F7F80191838083DA942496F2E0EF0EEA
:10074000F11C0E5F1F4FD110AFCF80919903909194
:100750009A03019790939A0380939903E1E9F3E058
:10076000CFE5D3E0A8E8B2E0819191912881398169
:10077000281B390B4D915C911197CA01805293400F
:10078000281739073CF0CA01805E9C4F28173907AB
:100790000CF4C901899399938D939D9383E0E73974
:1007A000F80711F7DF91CF911F910F91FF90EF9014
:1007B000DF9008958F929F92AF92BF92CF92DF9277
:1007C000EF92FF920F931F93CF93DF93EC018B0176
:1007D0007A018CE08093B8006DE188E60E942405E0
:1007E0006FE5C62E63E0D62E20916F0330E0322FE6
:1007F000222780917003282B3595279535952795CD
:10080000F60131832083F1E6AF2EF3E0BF2E209175
:10081000710330E0322F222780917203282B359507
:10082000279535952795F5013183208383E6882E1A
:1008300083E0982E2091730330E0322F222780919D
:100840007403282B3595279535952795F401318329
:1008500020830E943C03F6018081918199838883E3
:10086000F50180819181F80191838083F401808179
:100870009181F70191838083DF91CF911F910F9137
:10088000FF90EF90DF90CF90BF90AF909F908F90B0
:100890000895861797072CF0481759071CF4CA01CA
:1008A0000895CB010895589859981092B9008CE09A
:1008B0008093B80084E08093BC00089584E980931D
:1008C000BC0008958FEF90E02091BC0027FD0FC081
:1008D00001970097C9F71092BC0080919A029091FD
:1008E0009B02019690939B0280939A02089508952B
:1008F0000F931F93CF93DF931F92CDB7DEB70CEB0F
:1009000010E094EAF801908389830E94620489814F
:100910008093BB0084E8F80180830F90DF91CF9132
:100920001F910F910C9462048093BB0084E8809324
:10093000BC000C946204CF93C82F882311F084EC80
:1009400001C084E88093BC000E9462048091BB00D7
:10095000C11103C094E99093BC00CF91089580E049
:100960000C949B0484EC8093BC000E9462048091F0
:10097000BB000895CF92DF92EF92FF920F931F93E7
:10098000CF93DF931F921F92CDB7DEB77A01880F06
:10099000816069837A830E9478048701015011097C
:1009A0006981C62E7A81D72E0F3FFFEF1F0769F0AE
:1009B00081E00115110509F480E00E949B04F60115
:1009C00081936F0101501109EFCFC7010F900F9074
:1009D000DF91CF911F910F91FF90EF90DF90CF901B
:1009E0000895CF92DF92FF920F931F93CF93DF93DF
:1009F0001F92CDB7DEB7F82E6A018901880F69838F
:100A00000E9478046981862F0E949404A801B6018F
:100A10008F2D0F90DF91CF911F910F91FF90DF905D
:100A2000CF900C94BA0461507109680F791FFC01D2
:100A3000E617F70740F48081DB019C9191938C933A
:100A400061507109F5CF089526E030E04FE653E09C
:100A50000C94F104CF93DF931F921F92CDB7DEB7B2
:100A6000880F4A8369830E9478046981862F0E94D7
:100A700094044A81842F0E94940484E98093BC00EA
:100A80000F900F90DF91CF910895CF93DF931F9236
:100A9000CDB7DEB721E030E0AE014F5F5F4F0E947F
:100AA000F10489810F90DF91CF9108951092070191
:100AB0008FEF8093080184E08093680081E0809349
:100AC0009E0280936D0008958091060190919E0290
:100AD000892390919C02982780939C0289230895F2
:100AE0001F920F920FB60F9211240BB60F922F93F5
:100AF0003F934F935F936F937F938F939F93AF93A6
:100B0000BF93CF93DF93EF93FF930E9464058823F5
:100B100081F0C0919F02D0E00E949208FE01EE0F8A
:100B2000FF1FE054FD4F9183808381E080939D02FD
:100B300052C080919D02882309F44DC0C0919F024C
:100B4000D0E00E949208FE01EE0FFF1FE055FD4F1E
:100B50009183808360919F02862F90E0880F991F78
:100B6000FC01E055FD4F40815181FC01E054FD4FF7
:100B700020813181FC01E056FD4F4217530748F0B8
:100B8000421B530B5093D1024093D00251834083B8
:100B90000AC0241B350B209530953093D102209349
:100BA000D0023183208310929D0281E0860F86302F
:100BB00018F480939F0202C010929F0281E090E09F
:100BC00000909F0202C0880F991F0A94E2F7809359
:100BD0009E0280936D00FF91EF91DF91CF91BF91C5
:100BE000AF919F918F917F916F915F914F913F91C5
:100BF0002F910F900BBE0F900FBE0F901F90189566
:100C000080939E0280936D0008952F923F924F92A1
:100C10005F926F927F928F929F92AF92BF92CF928C
:100C2000DF92EF92FF920F931F93CF93DF9300D049
:100C30001F92CDB7DEB72091A7033091A803409152
:100C4000A9035091AA030E94710A0CE212E0F80174
:100C5000408051806280738020E3222E22E0322E79
:100C6000F101C080D180E280F380E4E3F2E02081F2
:100C700031814281538129833A834B835C83609322
:100C8000A3037093A4038093A5039093A6032AE083
:100C900037ED43EA5CE30E948F0B9B01AC0160914E
:100CA000AB037091AC038091AD039091AE030E94B1
:100CB000720A6093AB037093AC038093AD0390937F
:100CC000AE0338E2A32E32E0B32EA30192016FE609
:100CD00072E183E89AE30E94710AA70196010E94DB
:100CE000710A2AE037ED43EA5CE30E948F0B9B0117
:100CF000AC01F50160817181828193810E94720A49
:100D0000F501608371838283938369817A818B810A
:100D10009C8190582AE037ED43EA5CE30E948F0BF8
:100D20004B015C019B01AC01C301B2010E94720A3C
:100D3000F8016083718382839383A5019401C701C5
:100D4000B6010E94720AF1016083718382839383EA
:100D500022E838EA4BEF57E369817A818B819C81E5
:100D60000E94720AE4E3F2E06083718382839383DA
:100D70000F900F900F900F90DF91CF911F910F91D7
:100D8000FF90EF90DF90CF90BF90AF909F908F90AB
:100D90007F906F905F904F903F902F9008952F928B
:100DA0003F924F925F926F927F928F929F92AF92FB
:100DB000BF92CF92DF92EF92FF920F931F93CF9348
:100DC000DF93CDB7DEB760970FB6F894DEBF0FBEE6
:100DD000CDBF2091AB033091AC034091AD03509156
:100DE000AE032D833E834F8358870E94710A6D871F
:100DF0007E878F87988BA8E2B2E08D909D90AD9012
:100E0000BC9040E3242E42E0342ED1012D913D913F
:100E10004D915C9129873A874B875C872FE632E1B9
:100E200043E85AE3C501B4010E94720A6B017C01D8
:100E30009B01AC01C501B4010E94D60A69837A8383
:100E40008B839C83A701960169857A858B859C8518
:100E50000E94D60A6B017C010CE212E0F80140808E
:100E6000518062807380A501940169817A818B81B0
:100E70009C810E948F0B9B01AC01C501B4010E94B3
:100E8000710AA8E2B2E06D937D938D939C931397C2
:100E9000A301920169817A818B819C810E948F0BD1
:100EA0009B01AC01C301B2010E94710AF801608389
:100EB000718382839383A5019401C701B6010E94C7
:100EC0008F0B9B01AC0169857A858B859C850E947F
:100ED000710AD1016D937D938D939C93139704E3D5
:100EE00012E0A3019201C701B6010E948F0B9B0182
:100EF000AC01F80160817181828193810E94710A45
:100F0000D8016D937D938D939C9313972D853E858A
:100F10004F85588969817A818B819C810E948F0BD2
:100F20009B01AC016D817E818F8198850E94720A40
:100F30006093AB037093AC038093AD039093AE03C7
:100F40002D853E854F855889C701B6010E948F0BBC
:100F50009B01AC016091A7037091A8038091A90344
:100F60009091AA030E94720A6093A7037093A8034A
:100F70008093A9039093AA0360960FB6F894DEBFFE
:100F80000FBECDBFDF91CF911F910F91FF90EF90DA
:100F9000DF90CF90BF90AF909F908F907F906F9099
:100FA0005F904F903F902F90089580E184B9E1E0E9
:100FB000F1E080E4808381EA8093B00086E0809352
:100FC000B10088E380833AEA3093A00021E12093C6
:100FD000A10080E795E49093A7008093A60010926B
:100FE000A9001092A8001092AB001092AA001092D3
:100FF000AD001092AC008DB188638DB93093900034
:101000002093910081E795E4909397008093960058
:10101000109299001092980010929B0010929A00E2
:1010200010929D0010929C00EAE0F1E0408148633C
:1010300040833093200120932101909327018093D6
:101040002601109229011092280110922B01109272
:101050002A0110922D0110922C0108958B3008F076
:1010600056C061157105A1F09B01823030F42E51FC
:1010700031092F31310560F04AC0285E3340293EE6
:10108000334008F044C093E0660F771F9A95E1F76C
:1010900090E0FC013197EA30F10520F4EE58FF4F63
:1010A0000C946B0A6093B3002FC06093B4002CC003
:1010B0007093AD006093AC0027C07093AB00609359
:1010C000AA0022C07093A9006093A8001DC070936D
:1010D0009D0060939C0018C070939B0060939A00E1
:1010E00013C070939900609398000EC070932D0107
:1010F00060932C0109C070932B0160932A0104C0F6
:10110000709329016093280180E090E0089581E0C8
:1011100090E008950C942E081092800083E0809354
:101120008100089580918400909185000895109227
:10113000B20082E08093B00085E08093B1008DE73B
:101140008093B300E0E7F0E0808182608083789450
:1011500008951F920F920FB60F9211248F939F93B1
:10116000AF93BF938091AF039091B003A091B1036F
:10117000B091B2030196A11DB11D8093AF0390936E
:10118000B003A093B103B093B203BF91AF919F910D
:101190008F910F900FBE0F901F901895F89460914B
:1011A000AF037091B0038091B1039091B203789432
:1011B000089528E12093C10026E02093C200909377
:1011C000C5008093C40008959091C00095FFFCCFA6
:1011D0008093C60080E090E00895CF93DF93EC0108
:1011E0008991882319F00E94E408FACFDF91CF910A
:1011F00008951F93CF93DF93EC01FE011491812F8B
:101200000E94E408112311F02196F7CFDF91CF91CE
:101210001F910895CF93DF93CDB7DEB72A970FB60E
:10122000F894DEBF0FBECDBF4AE050E0BE016F5F55
:101230007F4F0E94F90BCE0101960E94ED082A967D
:101240000FB6F894DEBF0FBECDBFDF91CF910895EA
:101250008091C00087FFFCCF8091C60008951F9247
:101260000F920FB60F9211248F938091C600809336
:10127000D2028F910F900FBE0F901F9018951F9262
:101280000F920FB60F9211240BB60F922F933F932C
:101290004F935F936F937F938F939F93AF93BF937E
:1012A000EF93FF9386E692E00E94ED08FF91EF91A5
:1012B000BF91AF919F918F917F916F915F914F916E
:1012C0003F912F910F900BBE0F900FBE0F901F906C
:1012D00018951F920F920FB60F9211242F933F93E0
:1012E0008F939F93AF93BF938091D4029091D50237
:1012F000A091D602B091D7023091D30223E0230F00
:101300002D3720F40196A11DB11D05C026E8230F3D
:101310000296A11DB11D2093D3028093D402909315
:10132000D502A093D602B093D7028091D8029091B3
:10133000D902A091DA02B091DB020196A11DB11D84
:101340008093D8029093D902A093DA02B093DB0283
:10135000BF91AF919F918F913F912F910F900FBEB1
:101360000F901F9018952FB7F8946091D402709148
:10137000D5028091D6029091D7022FBF08950F9386
:101380001F934FB7F89406B510E020E030E0A89B1B
:1013900009C0011511052105310521F400E011E016
:1013A00020E030E08091D8029091D902A091DA0239
:1013B000B091DB024FBF6627782F892F9A2F600FDD
:1013C000711F821F931F52E0660F771F881F991F9E
:1013D0005A95D1F71F910F9108958F929F92AF92D6
:1013E000BF92CF92DF92EF92FF926B017C010E943D
:1013F000B3094B015C010E94B309681979098A0994
:101400009B09C616D706E806F906A8F7FF90EF90E5
:10141000DF90CF90BF90AF909F908F9008950197ED
:10142000009751F0880F991F880F991F02972FB7C7
:10143000F8940197F1F72FBF0895789484B58260EE
:1014400084BD84B5816084BD85B5826085BD85B568
:10145000816085BDEEE6F0E0808181608083E1E817
:10146000F0E0808182608083808181608083E0E819
:10147000F0E0808181608083E1EBF0E08081846036
:101480008083E0EBF0E0808181608083EAE7F0E038
:10149000808184608083808182608083808181609C
:1014A00080838081806880831092C1000895AA1B88
:1014B000BB1B51E107C0AA1FBB1FA617B70710F03F
:1014C000A61BB70B881F991F5A95A9F78095909571
:1014D000BC01CD010895EE0FFF1F0590F491E02DA2
:1014E00019945058BB27AA270ED0DFC0D0D030F0B7
:1014F000D5D020F031F49F3F11F41EF4C5C00EF496
:10150000E095E7FBBBC0E92FE1D080F3BA17620793
:1015100073078407950718F071F49EF5F9C00EF46F
:10152000E0950B2EBA2FA02D0B01B90190010C01F3
:10153000CA01A0011124FF27591B99F0593F50F40B
:10154000503E68F11A16F040A22F232F342F442763
:10155000585FF3CF469537952795A795F04053955B
:10156000C9F77EF41F16BA0B620B730B840BBAF02B
:101570009150A1F0FF0FBB1F661F771F881FC2F796
:101580000EC0BA0F621F731F841F48F487957795AA
:101590006795B795F7959E3F08F0B3CF9395880F61
:1015A00008F09927EE0F9795879508950CD07DC088
:1015B00075D040F06CD030F021F45F3F19F05EC080
:1015C0005111A7C061C082D098F39923C9F3552364
:1015D000B1F3951B550BBB27AA2762177307840726
:1015E00038F09F5F5F4F220F331F441FAA1FA9F3DC
:1015F00033D00E2E3AF0E0E830D091505040E695CE
:10160000001CCAF729D0FE2F27D0660F771F881F2E
:10161000BB1F261737074807AB07B0E809F0BB0B1D
:10162000802DBF01FF2793585F4F2AF09E3F510541
:1016300068F024C06EC05F3FECF3983EDCF3869503
:1016400077956795B795F7959F5FC9F7880F911DB7
:101650009695879597F90895E1E0660F771F881FA3
:10166000BB1F621773078407BA0720F0621B730B56
:10167000840BBA0BEE1F88F7E095089597F99F67E2
:1016800080E870E060E008959FEF80EC089500240A
:101690000A941616170618060906089500240A94D7
:1016A00012161306140605060895092E0394000C5D
:1016B00011F4882352F0BB0F40F4BF2B11F460FFEC
:1016C00004C06F5F7F4F8F4F9F4F089557FD905815
:1016D000440F551F59F05F3F71F04795880F97FBF6
:1016E000991F61F09F3F79F08795089512161306B0
:1016F0001406551FF2CF4695F1DF08C016161706DF
:101700001806991FF1CF8695710561050894089513
:10171000E894BB2766277727CB0197F908950BD06C
:10172000C4CFB5DF28F0BADF18F0952309F0A6CFB3
:10173000ABCF1124EECFCADFA0F3959FD1F3950F65
:1017400050E0551F629FF001729FBB27F00DB11D45
:10175000639FAA27F00DB11DAA1F649F6627B00DD5
:10176000A11D661F829F2227B00DA11D621F739FBE
:10177000B00DA11D621F839FA00D611D221F749FCC
:101780003327A00D611D231F849F600D211D822F13
:10179000762F6A2F11249F5750408AF0E1F088235A
:1017A0004AF0EE0FFF1FBB1F661F771F881F915067
:1017B0005040A9F79E3F510570F060CFAACF5F3F20
:1017C000ECF3983EDCF3869577956795B795F7959A
:1017D000E7959F5FC1F7FE2B880F911D9695879522
:1017E00097F90895FB01DC0101900D920020E1F7CB
:1017F0000895FB019F01E8944230C4F04532B4F4EF
:101800004A3029F497FB1EF4909581959F4F642FE1
:1018100077270E94570A805D8A330CF0895D819397
:10182000CB010097A1F716F45DE251931082C90134
:101830000C945A0E0F931F93CF93DF93CDB7DEB75F
:101840002E970FB6F894DEBF0FBECDBF0E891F894D
:1018500086E08C831A8309838FEF9FE79E838D83B5
:10186000AE01465E5F4F688D798DCE0101960E9474
:10187000490CEF81F885E00FF11F10822E960FB60C
:10188000F894DEBF0FBECDBFDF91CF911F910F91B6
:1018900008952F923F924F925F926F927F928F9214
:1018A0009F92AF92BF92CF92DF92EF92FF920F93EF
:1018B0001F93CF93DF93CDB7DEB72C970FB6F89475
:1018C000DEBF0FBECDBF7C016B018A01FC01178218
:1018D0001682838181FFBDC1CE0101964C01F701C3
:1018E0009381F60193FD859193FF81916F01882388
:1018F00009F4ABC1853239F493FD859193FF819151
:101900006F01853229F4B70190E00E946A0EE7CF9B
:10191000512C312C20E02032A0F48B3269F030F4CD
:10192000803259F0833269F420612CC08D3239F055
:10193000803339F4216026C02260246023C02860EF
:1019400021C027FD27C030ED380F3A3078F426FF4C
:1019500006C0FAE05F9E300D1124532E13C08AE0BA
:10196000389E300D1124332E20620CC08E3221F4AB
:1019700026FD6BC1206406C08C3611F4206802C0BD
:10198000883641F4F60193FD859193FF81916F01B3
:101990008111C1CF982F9F7D9554933028F40C5F0F
:1019A0001F4FFFE3F9830DC0833631F0833771F0A9
:1019B000833509F05BC022C0F801808189830E5F06
:1019C0001F4F44244394512C540115C03801F2E0B8
:1019D0006F0E711CF801A080B18026FF03C0652D39
:1019E00070E002C06FEF7FEFC5012C870E944F0EA1
:1019F0002C0183012C852F77222E17C03801F2E0AD
:101A00006F0E711CF801A080B18026FF03C0652D08
:101A100070E002C06FEF7FEFC5012C870E94440E7B
:101A20002C012C852068222E830123FC1BC0832DD2
:101A300090E048165906B0F4B70180E290E00E94A9
:101A40006A0E3A94F4CFF50127FC859127FE819127
:101A50005F01B70190E00E946A0E31103A94F1E004
:101A60004F1A51084114510471F7E5C0843611F042
:101A7000893639F5F80127FF07C0608171818281BD
:101A800093810C5F1F4F08C060817181882777FDAB
:101A90008095982F0E5F1F4F2F76B22E97FF09C0AB
:101AA00090958095709561957F4F8F4F9F4F2068DF
:101AB000B22E2AE030E0A4010E949C0EA82EA818A5
:101AC00044C0853729F42F7EB22E2AE030E025C0AD
:101AD000F22FF97FBF2E8F36C1F018F4883579F0D8
:101AE000B4C0803719F0883721F0AFC02F2F2061A4
:101AF000B22EB4FE0DC08B2D8460B82E09C024FF19
:101B00000AC09F2F9660B92E06C028E030E005C0BD
:101B100020E130E002C020E132E0F801B7FE07C06A
:101B200060817181828193810C5F1F4F06C060814B
:101B3000718180E090E00E5F1F4FA4010E949C0E17
:101B4000A82EA818FB2DFF77BF2EB6FE0BC02B2D9D
:101B50002E7FA51450F4B4FE0AC0B2FC08C02B2D91
:101B60002E7E05C07A2C2B2D03C07A2C01C0752C3B
:101B700024FF0DC0FE01EA0DF11D8081803311F4B8
:101B8000297E09C022FF06C07394739404C0822F7B
:101B9000867809F0739423FD13C020FF06C05A2CE9
:101BA000731418F4530C5718732C731468F4B7019A
:101BB00080E290E02C870E946A0E73942C85F5CF0A
:101BC000731410F4371801C0312C24FF12C0B70170
:101BD00080E390E02C870E946A0E2C8522FF17C0BC
:101BE00021FF03C088E590E002C088E790E0B701DC
:101BF0000CC0822F867859F021FD02C080E201C01E
:101C00008BE227FD8DE2B70190E00E946A0EA514D9
:101C100038F4B70180E390E00E946A0E5A94F7CF3F
:101C2000AA94F401EA0DF11D8081B70190E00E94B1
:101C30006A0EA110F5CF332009F451CEB70180E22E
:101C400090E00E946A0E3A94F6CFF7018681978160
:101C500002C08FEF9FEF2C960FB6F894DEBF0FBE39
:101C6000CDBFDF91CF911F910F91FF90EF90DF904B
:101C7000CF90BF90AF909F908F907F906F905F902C
:101C80004F903F902F900895FC0105906150704057
:101C90000110D8F7809590958E0F9F1F0895FC0135
:101CA0006150704001900110D8F7809590958E0F8B
:101CB0009F1F0895DC01FC01672F71917723E1F7E5
:101CC000329704C07C916D9370836291AE17BF0709
:101CD000C8F308950F931F93CF93DF93182F092F05
:101CE000EB018B8181FD03C08FEF9FEF20C082FF4E
:101CF00010C04E815F812C813D81421753077CF4D7
:101D0000E881F9819F012F5F3F4F3983288310833A
:101D100006C0E885F985812F1995892B29F72E8131
:101D20003F812F5F3F4F3F832E83812F902FDF9185
:101D3000CF911F910F910895FA01AA27283051F1F0
:101D4000203181F1E8946F936E7F6E5F7F4F8F4FEC
:101D50009F4FAF4FB1E03ED0B4E03CD0670F781F4B
:101D6000891F9A1FA11D680F791F8A1F911DA11D30
:101D70006A0F711D811D911DA11D20D009F4689469
:101D80003F912AE0269F11243019305D3193DEF611
:101D9000CF010895462F4770405D4193B3E00FD0C7
:101DA000C9F7F6CF462F4F70405D4A3318F0495DB2
:101DB00031FD4052419302D0A9F7EACFB4E0A69595
:101DC0009795879577956795BA95C9F700976105B7
:101DD000710508959B01AC010A2E0694579547950D
:101DE00037952795BA95C9F7620F731F841F951F02
:081DF000A01D0895F894FFCF37
:101DF800736F6D65206368617261637465727300E7
:101E080000000000000000000000000000000000CA
:101E180000000000000000000000803F00000000FB
:101E2800000000000000803F4779726F73636F7095
:101E38006500646174615B305D3A2025640064610B
:101E480074615B315D3A20256400646174615B32C2
:101E58005D3A20256400547820496E746572727565
:061E680070740A0D000079
:00000001FF
