:100000000C9472000C9493000C9493000C94930045
:100010000C9493000C9493000C9493000C94930014
:100020000C9493000C9493000C9493000C946E0920
:100030000C9493000C94FB0C0C9493000C94930080
:100040000C9493000C9493000C9493000C949300E4
:100050000C9493000C9493000C9493000C94C20D98
:100060000C9493000C94870D0C9493000C94970DB2
:100070000C9493000C9493000C9493000C949300B4
:100080000C9493000C9493000C9493000C949300A4
:100090000C9493000C9493000C9493000C94930094
:1000A0000C9493000C9493000C9493000C94930084
:1000B0000C9493000C9493000C9493000C94930074
:1000C0000C9493000C9493000C9493000C94930064
:1000D0000C9493000C9493000C9493000C94930054
:1000E0000C94930011241FBECFEFD1E2DEBFCDBF31
:1000F00000E00CBF12E0A0E0B2E0E8E6FEE100E0C4
:100100000BBF02C007900D92A235B107D9F713E0DB
:10011000A2E5B2E001C01D92A938B107E1F70E9443
:1001200007050C94320F0C940000A0E0B0E0EBE95E
:10013000F0E00C94CE0E3C01CB01EA01D3012C91EE
:10014000223008F43EC1FB013081323008F436C160
:10015000243071F4343009F034C111962C9181812E
:10016000281709F42EC1BAE36B2EB2E07B2E29C109
:10017000343009F423C1323091F4223009F021C126
:1001800028E0F301DA0101900D922A95E1F7DB01F5
:1001900011968C91F30191818923898311C12230B9
:1001A00009F40CC1D3011296ED91FC911397DB0178
:1001B00012966D917C911397D30114960D911D9118
:1001C0002D913C911797DC011496CD90DD90ED9028
:1001D000FC901797AF01461B570BDA0157FF04C07D
:1001E000AA27BB27A41BB50BA032B1050CF065C034
:1001F000141615067CF5B701A6010A2E04C07695E3
:100200006795579547950A94D2F7812C912C540104
:10021000839404C0880C991CAA1CBB1CAA95D2F715
:10022000B1E08B1A9108A108B1088C209D20AE2066
:10023000BF20C12CD12C7601C39481149104A10458
:10024000B10419F4C12CD12C7601C42AD52AE62A8E
:10025000F72A3EC0452BE1F1EA0FFB1FB901A801C7
:100260000A2E04C076956795579547950A94D2F75C
:10027000812C912C5401839404C0880C991CAA1CD5
:10028000BB1CAA95D2F7A1E08A1A9108A108B1086F
:1002900080229122A222B32201E010E020E030E08F
:1002A00081149104A104B10419F400E010E0980154
:1002B000042B152B262B372B0BC06E177F0724F42E
:1002C000C12CD12C760104C0FB0100E010E09801A4
:1002D000D30111964C91DC0111968C91481709F4C9
:1002E00042C0442349F0D701C601801B910BA20BE9
:1002F000B30B8C019D0104C00C191D092E093F0987
:1003000037FD04C01982FB83EA830BC081E0898337
:10031000FB83EA8330952095109501951F4F2F4F51
:100320003F4F0C831D832E833F830DC0880F991F81
:10033000AA1FBB1F8C839D83AE83BF838A819B8151
:1003400001979B838A838C819D81AE81BF818C01C3
:100350009D0101501109210931090F3F1F4F2F4FF6
:100360003F4320F30BC04983FB83EA830C0D1D1D23
:100370002E1D3F1D0C831D832E833F8383E08883C6
:100380000C811D812E813F8137FF1AC0D901C80120
:1003900081709927AA27BB2736952795179507952A
:1003A000802B912BA22BB32B8C839D83AE83BF8399
:1003B0008A819B8101969B838A8302C03C0101C094
:1003C0003E01C301CDB7DEB7EEE00C94EA0EA0E229
:1003D000B0E0EDEEF1E00C94DA0E6D8F7E8F8F8F32
:1003E00098A3298F3A8F4B8F5C8FBE016F5E7F4F32
:1003F000CE014D960E948C04BE01675F7F4FCE01F7
:1004000049960E948C04AE014F5F5F4FBE01675F4B
:100410007F4FCE0141960E9495000E94CB03A0968B
:10042000E2E00C94F60EA0E2B0E0E9E1F2E00C9418
:10043000DA0E6D8F7E8F8F8F98A3298F3A8F4B8F17
:100440005C8FBE016F5E7F4FCE014D960E948C0483
:10045000BE01675F7F4FCE0149960E948C048A855A
:1004600091E089278A87AE014F5F5F4FBE01675FCA
:100470007F4FCE0141960E9495000E94CB03A0962B
:10048000E2E00C94F60EA0E2B0E0E9E4F2E00C94B5
:10049000CC0E6D8F7E8F8F8F98A3298F3A8F4B8FC5
:1004A0005C8FBE016F5E7F4FCE014D960E948C0423
:1004B000BE01675F7F4FCE0149960E948C049989E7
:1004C000923008F412C08985823008F41AC0943042
:1004D00021F4823009F4B4C008C0843021F4923091
:1004E00009F4AEC00EC0923051F481E02A899A8599
:1004F000291301C080E08A8BCE014196A3C08230CF
:1005000051F481E02A899A85291301C080E08A8705
:10051000CE01099697C08D889E88AF88B88C0D85CE
:100520001E852F853889E0E2F0E080E090E0DC0174
:10053000C12CD12C760140E050E0BA0180FE18C0F9
:10054000400F511F621F731F8C0D9D1DAE1DBF1DDF
:10055000412C512C32014394401751076207730715
:1005600018F0412C512C3201840D951DA61DB71D8C
:10057000CC0CDD1CEE1CFF1C37FF02C06894C0F8D9
:10058000000F111F221F331FB694A79497948794CE
:100590003197A1F62B893C89EB85FC852E0F3F1FF7
:1005A0002E5F3F4F3C832B8321E0EA893A85E3139A
:1005B00001C020E02A83EB81FC810CC080FF05C0D4
:1005C00076956795579547957068B695A7959795D1
:1005D00087953196B7FDF2CF9F010CC0880F991F08
:1005E000AA1FBB1F77FD8160440F551F661F771F31
:1005F000215031090097A105E0E4BE0778F32B8371
:100600003C838C019D010F7711272227332700346B
:1006100011052105310559F487FD09C0452B462BED
:10062000472B29F0805C9F4FAF4FBF4F80788D8361
:100630009E83AF83B88783E08983CE01019602C091
:100640008AE392E00E94CB03A096E0E10C94E80ECE
:10065000A8E1B0E0EEE2F3E00C94D40E6D8B7E8B5B
:100660008F8B988F298B3A8B4B8B5C8BBE01675F8E
:100670007F4FCE0145960E948C04BE016F5F7F4F75
:10068000CE0141960E948C049985923008F475C081
:100690008981823008F474C02A853A8123272A8709
:1006A000943011F0923019F4981367C06CC0843004
:1006B00039F41D861E861F86188A1C861B8604C078
:1006C000823029F484E08987CE0109965EC08B854B
:1006D0009C852B813C81821B930B9C878B874D854E
:1006E0005E856F857889CD80DE80EF80F8844C153B
:1006F0005D056E057F0538F4440F551F661F771F93
:1007000001979C878B87EFE1F0E000E010E020E0AC
:1007100030E480E090E0DC014C155D056E057F055E
:1007200040F0802B912BA22BB32B4C195D096E0945
:100730007F093695279517950795440F551F661F16
:10074000771F319749F78C019D010F7711272227D9
:100750003327003411052105310559F487FD09C0FF
:10076000452B462B472B29F0805C9F4FAF4FBF4F47
:1007700080788D879E87AF87B88BCE01099605C09C
:10078000CE01019602C08AE392E00E94CB036896F4
:10079000E8E00C94F00E0F931F93CF93FC0144817B
:1007A000558166817781C1818081823020F46061CA
:1007B0008FEF90E0A3C0843009F49BC0823009F42D
:1007C00092C0411551056105710509F48FC0228160
:1007D000338122388FEF38070CF057C0E2E8FFEF83
:1007E000E21BF30BEA31F10564F58A019B010E2E41
:1007F00004C036952795179507950A94D2F781E09E
:1008000090E0A0E0B0E004C0880F991FAA1FBB1FB2
:10081000EA95D2F70197A109B10984239523A6236C
:10082000B72341E050E060E070E0892B8A2B8B2BEE
:1008300019F440E050E0BA01402B512B622B732B8E
:1008400003C040E050E0BA01DB01CA018F7799276D
:10085000AA27BB2780349105A105B10539F447FFCC
:1008600009C0405C5F4F6F4F7F4F04C0415C5F4FDA
:100870006F4F7F4F81E090E041155105610520E405
:10088000720748F580E090E026C0203831058CF5ED
:10089000DB01CA018F779927AA27BB2780349105EE
:1008A000A105B10539F447FF09C0405C5F4F6F4FA8
:1008B0007F4F04C0415C5F4F6F4F7F4F77FD04C097
:1008C000C90181589F4F07C0769567955795479501
:1008D000C90180589F4F97E0769567955795479542
:1008E0009A95D1F70BC080E090E005C080E090E0E1
:1008F00005C08FEF90E040E050E0BA01982F969548
:10090000C0FB97F9362F80FB37F9642F752F832FA3
:10091000CF911F910F910895CF92DF92EF92DC015A
:10092000FB01CC901196DC90119712968C91129746
:100930003FE7E32EE8226E2DA60170E0982F991F65
:100940009927991F13962C91822F880F892B90E05D
:1009500027FB222720F92183009729F5411551050E
:100960006105710511F482E027C082E89FEF93834F
:10097000828327E0440F551F661F771F2A95D1F702
:1009800083E0808309C0440F551F661F771F828153
:10099000938101979383828341155105610580E41A
:1009A000780788F320C08F3F910579F441155105F0
:1009B0006105710519F484E0808319C0E4FE03C069
:1009C00081E0808310C010820EC08F5791099383FD
:1009D000828383E0808387E0440F551F661F771F63
:1009E0008A95D1F770644483558366837783EF904B
:1009F000DF90CF900895825021E030E0843010F4F1
:100A000020E030E0C901089581E090E0089583E39B
:100A100090E00E94310D0E94E20B7894C8EED3E082
:100A20006091000270910102603D87E0780740F517
:100A300085E00E943B0C609100027091010285E00C
:100A40000E943B0C609100027091010285E00E94BF
:100A50003B0C609100027091010285E00E943B0C0A
:100A6000809100029091010201969093010280937F
:100A700000028FE99FE00197F1F700C00000D0CF9E
:100A8000D0930102C0930002CBCFCF93C82F8250E6
:100A90008430F8F460ED77E08C2F0E943B0C2FEF50
:100AA00087EA91E6215080409040E1F700C00000C5
:100AB00068EE73E08C2F0E943B0C2FEF87EA91E6E3
:100AC000215080409040E1F700C0000020E030E07D
:100AD00002C021E030E0C901CF9108958B3080F44D
:100AE0009B01285E3340293E334050F493E0660F6B
:100AF000771F9A95E1F70E943B0C20E030E002C09E
:100B000021E030E0C90108958B3038F460E070E0F6
:100B10000E943B0C20E030E002C021E030E0C9013F
:100B200008958FE39CE90197F1F700C0000040E1D0
:100B30006DE080E40E9428098FE19EE40197F1F7BF
:100B400000C0000060E280E40E944309482F4F701B
:100B500060E280E40E9428098FE19EE40197F1F7AA
:100B600000C0000060E380E40E944309482F4C7FEE
:100B700060E380E40E9428098FE19EE40197F1F789
:100B800000C0000065E380E40E944309482F417FD4
:100B90004A6065E380E40E9428098FE19EE40197A2
:100BA000F1F700C000000895FF920F931F93CF93B9
:100BB000DF932091B8023091B9022115310509F473
:100BC00081C0E8E5F2E0CBE3D3E004E513E0F12CEB
:100BD000211582E0380721F41082118212821382DB
:100BE00048815981662757FD6095762F80819181D4
:100BF000A281B381840F951FA61FB71F8193919384
:100C0000A193B19319921992D8011D921D928D0151
:100C1000F394B3E0FB12DCCF2130310509F04CC076
:100C20008091580290915902A0915A02B0915B02B2
:100C30009F5FAF4FBF4F49E0B595A79597958795B3
:100C40004A95D1F7909355038093540380915C02A9
:100C500090915D02A0915E02B0915F029F5FAF4FE5
:100C6000BF4F59E0B595A795979587955A95D1F7B8
:100C70009093570380935603809160029091610294
:100C8000A0916202B09163029F5FAF4FBF4F69E0D6
:100C9000B595A795979587956A95D1F78F5F910937
:100CA00090935903809358031092E0021092DF0250
:100CB0001092E2021092E102215031093093B90200
:100CC0002093B80280913B0390913C032091540300
:100CD00030915503821B930B90933C0380933B030D
:100CE00080913D0390913E0320915603309157032C
:100CF000821B930B90933E0380933D0380913F03AF
:100D0000909140032091580330915903821B930B1B
:100D10009093400380933F03DF91CF911F910F91F8
:100D2000FF9008958F929F92AF92BF92CF92DF92E1
:100D3000EF92FF920F931F93CF93DF936C015B01B0
:100D40004A018CE08093B80062E080E40E942209AE
:100D50007BE3E72E73E0F72E3091460320E080918D
:100D60004503282B319521953109F70131832083E3
:100D70000DE313E03091480320E080914703282BD6
:100D8000319521953109F80131832083CFE3D3E0F8
:100D900030914A0320E080914903282B398328832E
:100DA0000E94D405F70180819181F60191838083AF
:100DB000F80180819181F5019183808388819981F7
:100DC000F40191838083DF91CF911F910F91FF9068
:100DD000EF90DF90CF90BF90AF909F908F9008954D
:100DE0002FEF81EE94E0215080409040E1F700C069
:100DF000000040E86EE388E60E9428098FE19EE447
:100E00000197F1F700C000004BE166E188E60E941F
:100E100028098FE19EE40197F1F700C0000043E04C
:100E20006EE388E60E9428099FEF21EE84E091504E
:100E300020408040E1F700C0000008950F931F9309
:100E4000CF93DF931F921F92CDB7DEB78C018CE05A
:100E50008093B80022E030E0AE014F5F5F4F6BE15E
:100E600088E60E94F108398120E08A81A901482B97
:100E7000CA0168E171E00E94B60EF80171836083D7
:100E80000F900F90DF91CF911F910F910895DF92F6
:100E9000EF92FF920F931F93CF93DF9380916F0395
:100EA00090917003892B09F464C0C4E6D2E035E365
:100EB000E32E33E0F32E07E613E0D12C20916F03ED
:100EC00030917003211582E0380721F418821982CD
:100ED0001A821B82F70140815181662757FD609578
:100EE000762F88819981AA81BB81840F951FA61FC7
:100EF000B71F88839983AA83BB8311821082F8016C
:100F0000118210822130310509F58DE693E00E94AF
:100F10001E071092720310927103109274031092C4
:100F20007303109276031092750388819981AA81C8
:100F3000BB819F5FAF4FBF4F29E0B595A7959795B0
:100F400087952A95D1F7F80191838083D3942496CD
:100F5000F2E0EF0EF11C0E5F1F4F83E0D812AECF10
:100F600080916F0390917003019790937003809329
:100F70006F03E7E6F3E0C5E3D3E0A0E7B2E08191D9
:100F8000919128813981281B390B4D915C911197E2
:100F9000CA0180529340281739073CF0CA01805E8D
:100FA0009C4F281739070CF4C901899399938D93A5
:100FB0009D9383E0ED36F80711F7DF91CF911F91F4
:100FC0000F91FF90EF90DF9008958F929F92AF92D4
:100FD000BF92CF92DF92EF92FF920F931F93CF9326
:100FE000DF936C015B014A018CE08093B8006DE1F6
:100FF00088E60E94220945E3E42E43E0F42E309176
:10100000450320E080914603282B3595279535959B
:101010002795F7013183208307E313E030914703DD
:1010200020E080914803282B359527953595279505
:10103000F80131832083C9E3D3E03091490320E0F4
:1010400080914A03282B3595279535952795398327
:1010500028830E944707F70180819181F6019183DF
:101060008083F80180819181F5019183808388815B
:101070009981F40191838083DF91CF911F910F912A
:10108000FF90EF90DF90CF90BF90AF909F908F90A8
:101090000895861797072CF0BA01841795070CF46A
:1010A000BC01CB010895589859981092B9008CE072
:1010B0008093B80084E08093BC00089584E9809315
:1010C000BC0008958FEF90E00EC0019761F410927C
:1010D000BC008091760290917702019690937702FE
:1010E0008093760208952091BC0027FFEECF0895EB
:1010F000CF93C82F882311F084EC01C084E880933B
:10110000BC000E9462088091BB00C11103C094E939
:101110009093BC00CF91089580E00C947808809360
:10112000BB0084E88093BC000C9462080F931F936B
:10113000CF93DF931F92CDB7DEB70CEB10E094EAAC
:10114000F801908389830E94620889818093BB00A3
:1011500084E8F80180830F90DF91CF911F910F9168
:101160000C94620884EC8093BC000E946208809119
:10117000BB000895CF92DF92EF92FF920F931F93DF
:10118000CF93DF931F921F92CDB7DEB77A01880FFE
:10119000816069837A830E94960887010150110952
:1011A0006981C62E7A81D72E0CC081E00115110508
:1011B00009F480E00E947808F60181936F010150E4
:1011C00011090F3FFFEF1F0781F7C7010F900F9025
:1011D000DF91CF911F910F91FF90EF90DF90CF9013
:1011E0000895CF92DF92FF920F931F93CF93DF93D7
:1011F0001F92CDB7DEB7F82E6A018901880F698387
:101200000E9496086981862F0E948F08A801B60166
:101210008F2D0F90DF91CF911F910F91FF90DF9055
:10122000CF900C94BA08FB013197E80FF91FDC014D
:1012300005C08C9190819D9380833197AE17BF0735
:10124000C0F3089526E030E045E453E00C94F10843
:10125000CF93DF931F921F92CDB7DEB7880F4A83DB
:1012600069830E9496086981862F0E948F084A81AF
:10127000842F0E948F0884E98093BC000F900F9008
:10128000DF91CF910895CF93DF931F92CDB7DEB753
:1012900021E030E0AE014F5F5F4F0E94F10889818D
:1012A0000F90DF91CF910895109207018FEF8093F7
:1012B000080184E08093680081E080937902809344
:1012C0006D00089580910601909179028923909193
:1012D000AD0298278093AD02892308951F920F9243
:1012E0000FB60F9211240BB60F921BBE2F933F9394
:1012F0004F935F936F937F938F939F93AF93BF931E
:10130000CF93DF93EF93FF930E946209882381F0CC
:10131000C0917A02D0E00E94E30CFE01EE0FFF1FA5
:10132000E556FD4F9183808381E08093780252C01F
:1013300080917802882309F44DC0C0917A02D0E0F0
:101340000E94E30CFE01EE0FFF1FE557FD4F918356
:10135000808380917A0290E0880F991FFC01E55705
:10136000FD4F40815181FC01E556FD4F20813181C7
:10137000FC01E558FD4F4217530748F0421B530B41
:101380005093AC024093AB02518340830AC0241BAC
:10139000350B209530953093AC022093AB0231830E
:1013A00020831092780280917A028F5F863018F441
:1013B00080937A0202C010927A0281E090E000905D
:1013C0007A0202C0880F991F0A94E2F7809379028B
:1013D00080936D00FF91EF91DF91CF91BF91AF911D
:1013E0009F918F917F916F915F914F913F912F913D
:1013F0000F900BBE0F900FBE0F901F90189580930B
:10140000790280936D0008952F923F924F925F92E0
:101410006F927F928F929F92AF92BF92CF92DF9204
:10142000EF92FF920F931F93CF93DF9320917D0351
:1014300030917E0340917F03509180030E941302FC
:10144000FB01AEE2B2E04D905D906D907C90A2E326
:10145000B2E08D909D90AD90BC9026E3222E22E0CC
:10146000322ED101CD90DD90ED90FC90462F5F2F74
:10147000682F792F4093790350937A0360937B030D
:1014800070937C032AE037ED43EA5CE36E2F7F2FF5
:101490000E9443029B01AC01609181037091820321
:1014A00080918303909184030E94E70160938103FC
:1014B000709382038093830390938403CAE2D2E003
:1014C000A30192016FE672E183E89AE30E9413029E
:1014D000A50194010E9413022AE037ED43EA5CE380
:1014E0000E9443029B01AC01688179818A819B81C2
:1014F0000E94E701688379838A839B83C701B601D1
:1015000090582AE037ED43EA5CE30E9443028B01E6
:10151000D82FC92F762FCE01272F312F492F582FA3
:10152000C301B2010E94E701EEE2F2E06083718341
:1015300082839383CE01202F312F492F582FC5014D
:10154000B4010E94E701A2E3B2E06D937D938D9315
:101550009C93139722E838EA4BEF57E3C701B60193
:101560000E94E701F1016083718382839383DF919D
:10157000CF911F910F91FF90EF90DF90CF90BF9090
:10158000AF909F908F907F906F905F904F903F9023
:101590002F9008952F923F924F925F926F927F9279
:1015A0008F929F92AF92BF92CF92DF92EF92FF9273
:1015B0000F931F93CF93DF93CDB7DEB72E970FB660
:1015C000F894DEBF0FBECDBF20918103309182031E
:1015D00040918303509184032B833C834D835E832E
:1015E0000E9413026F83788789879A87EAE2F2E084
:1015F000C080D180E280F380E2E3F2E0408051805D
:10160000628073802FE632E143E85AE3C701B601F6
:101610000E94E7018B015C01762F272F312F4A2D85
:101620005B2DC701B6010E9428031B0189839A83A1
:10163000202F312F4A2D5B2DC301B2010E942803B8
:101640008B018E879B87EEE2F2E080809180A28002
:10165000B380A7019601E981FA81622D732DCF0134
:101660000E9443029B01AC01C701B6010E94130214
:10167000EAE2F2E06083718382839383A50194019F
:10168000E981FA81622D732DCF010E9443029B01F3
:10169000AC01C501B4010E941302EEE2F2E06083E6
:1016A000718382839383A7019601FE85EB85602F6A
:1016B000712F8F2F9E2F0E9443029B01AC01C3010B
:1016C000B2010E941302E2E3F2E06083718382833D
:1016D000938336E3E32E32E0F32EA5019401FE85D9
:1016E000EB85602F712F8F2F9E2F0E9443029B014D
:1016F000AC01F70160817181828193810E941302A4
:10170000F70160837183828393837F8168859985E4
:101710008A85272F362F492F582FF980EA80622D8E
:10172000732D8F2D9E2D0E9443029B01AC016B8176
:101730007C818D819E810E94E7016093810370937B
:10174000820380938303909384037F8168859985C6
:101750008A85272F362F492F582FFE85EB85602F3E
:10176000712F8F2F9E2F0E9443029B01AC0160912D
:101770007D0370917E0380917F03909180030E948E
:10178000E70160937D0370937E0380937F039093C2
:1017900080032E960FB6F894DEBF0FBECDBFDF914B
:1017A000CF911F910F91FF90EF90DF90CF90BF905E
:1017B000AF909F908F907F906F905F904F903F90F1
:1017C0002F90089580E184B9E1E0F1E080E4808326
:1017D00081EA8093B00086E08093B10088E3808343
:1017E0003AEA3093A00021E12093A10080E795E43C
:1017F0009093A7008093A6001092A9001092A800D1
:101800001092AB001092AA001092AD001092AC00A2
:101810008DB188638DB9309390002093910081E75A
:1018200095E49093970080939600109299001092FF
:10183000980010929B0010929A0010929D001092B6
:101840009C00EAE0F1E0408148634083309320014E
:101850002093210190932701809326011092290162
:101860001092280110922B0110922A0110922D0142
:1018700010922C0108958B3008F06AC06115710533
:10188000B1F09B01823038F42E5131092F313105EE
:1018900008F05EC00EC0285E3340293E334008F099
:1018A00057C093E0660F771F9A95E1F702C060E09A
:1018B00070E08530B9F158F48230D9F018F48130F5
:1018C00091F414C08330D1F0843069F41CC08830A6
:1018D00071F128F48630E1F0873029F41EC0893098
:1018E00059F18A3071F16093B3002FC06093B40056
:1018F0002CC07093AD006093AC0027C07093AB0018
:101900006093AA0022C07093A9006093A8001DC034
:1019100070939D0060939C0018C070939B0060932F
:101920009A0013C070939900609398000EC0709352
:101930002D0160932C0109C070932B0160932A0143
:1019400004C0709329016093280120E030E002C0B8
:1019500021E030E0C90108950C943B0C219A229AB1
:1019600080EA8093800082E180938100109285005C
:101970001092840080E29EE490938700809386001A
:101980008CED95E0909389008093880090938B0074
:1019900080938A0008959B01285E3340293E33409E
:1019A00058F4811105C070938900609388000895F0
:1019B00070938B0060938A0008951092800083E0FA
:1019C0008093810008952091840030918500C901A1
:1019D00008951092B20082E08093B00085E0809379
:1019E000B1008DE78093B300E0E7F0E08081826092
:1019F0008083789408951F920F920FB60F9211244E
:101A00008F939F93AF93BF938091850390918603AB
:101A1000A0918703B09188030196A11DB11D809309
:101A2000850390938603A0938703B0938803BF91A7
:101A3000AF919F918F910F900FBE0F901F901895AF
:101A40000F931F93F89400918503109186032091C2
:101A50008703309188037894B801C9011F910F91D1
:101A6000089528E12093C10026E02093C2009093BE
:101A7000C5008093C40008959091C00095FFFCCFED
:101A80008093C60080E090E00895CF93DF93EC014F
:101A900002C00E943C0D89918111FBCFDF91CF9153
:101AA00008951F93CF93DF93EC01FE011491812FD2
:101AB0000E943C0D112311F02196F7CFDF91CF91B9
:101AC0001F910895CF93DF93CDB7DEB72A970FB656
:101AD000F894DEBF0FBECDBF4AE050E0BE016F5F9D
:101AE0007F4F0E94010FCE0101960E94450D2A965C
:101AF0000FB6F894DEBF0FBECDBFDF91CF91089532
:101B00008091C00087FFFCCF8091C60008951F928E
:101B10000F920FB60F9211248F938091C60080937D
:101B2000AE028F910F900FBE0F901F9018951F92CD
:101B30000F920FB60F9211240BB60F921BBE2F936C
:101B40003F934F935F936F937F938F939F93AF9345
:101B5000BF93EF93FF9382E492E00E94450DFF91C3
:101B6000EF91BF91AF919F918F917F916F915F9115
:101B70004F913F912F910F900BBE0F900FBE0F9082
:101B80001F9018951F920F920FB60F9211242F934A
:101B90003F938F939F93AF93BF938091AF029091A8
:101BA000B002A091B102B091B2023091B702232FDE
:101BB0002D5F2D3720F40196A11DB11D05C0232FE7
:101BC0002A570296A11DB11D2093B7028093AF0240
:101BD0009093B002A093B102B093B2028091B3028D
:101BE0009091B402A091B502B091B6020196A11DE8
:101BF000B11D8093B3029093B402A093B502B09349
:101C0000B602BF91AF919F918F913F912F910F900D
:101C10000FBE0F901F9018950F931F938FB7F894D6
:101C20000091AF021091B0022091B1023091B20246
:101C30008FBFB801C9011F910F9108950F931F9392
:101C40004FB7F89486B590E0A0E0B0E0A89B08C03C
:101C50000097A105B10521F480E091E0A0E0B0E09B
:101C60000091B3021091B4022091B5023091B602F6
:101C70004FBF322F212F102F0027080F191F2A1FA7
:101C80003B1F52E0000F111F221F331F5A95D1F73F
:101C9000B801C9011F910F9108958F929F92AF9241
:101CA000BF92CF92DF92EF92FF926B017C010E9474
:101CB0000C0E4B015C010E940C0E681979098A090F
:101CC0009B09C616D706E806F906A8F7FF90EF901D
:101CD000DF90CF90BF90AF909F908F900895019725
:101CE00051F0880F991F880F991F02972FB7F8940A
:101CF0000197F1F72FBF0895789484B5826084BD71
:101D000084B5816084BD85B5826085BD85B58160FF
:101D100085BDEEE6F0E0808181608083E1E8F0E05F
:101D2000808182608083808181608083E0E8F0E050
:101D3000808181608083E1EBF0E08081846080833A
:101D4000E0EBF0E0808181608083EAE7F0E0808171
:101D500084608083808182608083808181608083D1
:101D60008081806880831092C1000895AA1BBB1BEC
:101D700051E107C0AA1FBB1FA617B70710F0A61B8B
:101D8000B70B881F991F5A95A9F780959095BC01AC
:101D9000CD0108952F923F924F925F926F927F9262
:101DA0008F929F92AF92BF92CF92DF92EF92FF926B
:101DB0000F931F93CF93DF93CDB7DEB7CA1BDB0B17
:101DC0000FB6F894DEBF0FBECDBF19942A883988AC
:101DD00048885F846E847D848C849B84AA84B984C3
:101DE000C884DF80EE80FD800C811B81AA81B981CF
:101DF000CE0FD11D0FB6F894DEBF0FBECDBFED01E3
:101E00000895FB019F01E8944230C4F04532B4F4D8
:101E10004A3029F497FB1EF4909581959F4F642FCB
:101E200077270E94B60E805D8A330CF0895D81931E
:101E3000CB010097A1F716F45DE251931082C9011E
:101E40000C94220FDC01FC01672F71917723E1F7DD
:101E5000329704C07C916D9370836291AE17BF0777
:081E6000C8F30895F894FFCFC8
:101E6800E803736F6D6520636861726163746572FE
:101E780073000000000000000000000000000000E7
:101E8800000000000000000000000000803F00008B
:101E98000000000000000000803F0000000000007B
:101EA8000000547820496E746572727570740A0D5A
:021EB800000028
:00000001FF
